:1000000000000320D1010000DD4000009940000005
:10001000994000009940000099400000994000007C
:10002000994000009940000099400000DD40000028
:10003000DD400000994000006D5200007152000048
:10004000DD400000DD400000DD400000DD4000003C
:10005000DD400000DD400000DD400000DD4000002C
:10006000DD400000DD400000DD400000DD4000001C
:10007000DD400000DD400000DD400000DD4000000C
:10008000DD400000DD400000DD400000DD400000FC
:10009000DD400000DD400000DD400000DD400000EC
:1000A000DD400000DD400000DD400000DD400000DC
:1000B000DD400000DD400000DD400000DD400000CC
:1000C000DD400000DD400000DD400000DD400000BC
:1000D000DD400000DD400000DD400000DD400000AC
:1000E000DD400000DD400000DD400000DD4000009C
:1000F000DD400000DD400000DD400000DD4000008C
:10010000DD400000DD400000DD400000DD4000007B
:10011000DD40000075450000DD400000DD400000CE
:10012000DD400000DD400000DD400000DD4000005B
:10013000DD400000DD400000DD400000DD4000004B
:10014000DD400000DD400000DD400000DD4000003B
:10015000DD400000DD400000DD400000DD4000002B
:10016000DD400000DD400000DD400000DD4000001B
:10017000DD400000DD400000DD400000DD4000000B
:10018000DD400000DD400000DD400000DD400000FB
:10019000DD400000DD400000DD400000DD400000EB
:1001A000DD400000DD400000DD400000DD400000DB
:1001B000DD400000DD400000DD400000DD400000CB
:1001C000DD400000DD400000DD400000DD400000BB
:1001D0005F4B4CF2205210B5DA814DF62812DA81CD
:1001E00000BF00BF03F07EFF5A4B4FF030621A632E
:1001F000594A9A63594ADA634FF0E0234FF4700288
:10020000C3F8882D03F5E823554A1A60554B9A78B0
:10021000110703D59A7842F008029A70524B53485E
:10022000AA221A70524BDA1C121AC11E22F00302C3
:10023000994288BF00224F4903F05AFE4E4B4F4867
:10024000DA1C121AC11E22F00302994288BF002252
:10025000002106F0C5F94A494A484FF4E87203F014
:1002600047FE494B494A802103F8011B9342FBD1C9
:100270004FF0E023434AC3F8082D454B8A221A70F9
:10028000A3F5805324225A70A0221A709A799207FB
:10029000FCD59A79D406FCD43E4A937903F00C033A
:1002A000082BFAD1304B60225A70DA78802AFCD1C0
:1002B000384B01221A715D225A719A799006FCD549
:1002C0009A795106FCD5234A33495164002191643F
:1002D000202119702F498B7903F00C030C2BFAD1D4
:1002E0002E4B53602E4A136913F4807303D153616C
:1002F0004FF4A85313614FF0E0232A4A5A610022B9
:100300009A6107221A61284AC3F8202D62B603F0C9
:1003100085FF234B5B69DA0705D5244803F072FF9C
:10032000234B244ADA61244B1B785B0609D5204C09
:10033000204BE2699A4204D11C4803F063FF00237A
:10034000E36103F0D5FE06F041FA03F0C9FDFEE7D4
:100350000020054000800440823F04000100002B83
:100360000300008500D0074000E007403007FF1F72
:10037000C80EFF1F40CC00007865FF1FC80EFF1F8E
:10038000000000000002FF1F00E400E064E400E061
:10039000005006400040064000000602C010070062
:1003A00000D003401FBF0200000020203B175E6604
:1003B00000E00340A5C3945A00F00740FFFFFFFF91
:1003C000FFFFFFFFFFFFFFFFFFFFFFFFFFFFFFFF3D
:1003D000FFFFFFFFFFFFFFFFFFFFFFFFFFFFFFFF2D
:1003E000FFFFFFFFFFFFFFFFFFFFFFFFFFFFFFFF1D
:1003F000FFFFFFFFFFFFFFFFFFFFFFFFFFFFFFFF0D
:10040000FFFFFFFFFFFFFFFFFFFFFFFFDEF9FFFF23
:100410000548064B1B1AD90F01EBA301491002D066
:10042000034B03B118477047C80EFF1FC80EFF1FCC
:100430000000000008B5054B1BB105490548AFF3A6
:100440000080BDE80840FFF7E3BF00BF00000000E8
:10045000C80EFF1F40CC000000207047034B1868F7
:1004600010B103681B681847704700BF1861FF1F71
:10047000034B186810B103681B681847704700BF2A
:100480001C61FF1F00F500502DE9F04196464A4AD5
:10049000C0F8101914681368484DB5FBF1F043F02B
:1004A000A043B5FBF0F590B04D1B04F080741360D1
:1004B0001368DE01FCD505284FF0000C22D93F4E11
:1004C00063465A1C0233B0FBF3F7192F07FB03F303
:1004D0000FD8B6FBF3F3CB1A002BB8BF5B42AB428D
:1004E00009DA1D4694460B2F06D9122F9CBF1D46D4
:1004F00094461346E5E7F6D0052FFAD80CF1010330
:10050000B0FBF3F00538142848D8B5F5967F45DCE4
:1005100000EB40002A4FDFF8A08000F140030DEB14
:1005200003050FCF6E460FC60FCF0FC60FCF0FC6F6
:1005300097E80F0007C626F8023B1B0C337015F82E
:100540003F3C15F83E2C15F8401CDB04120402F465
:10055000E02203F46013134301F00702134343F452
:10056000800343EA0C6343F48043C8F80430D8F8AE
:100570000430BEF1020F14BF23F0080343F0080358
:10058000C8F804303CB90C4A136823F08053136058
:100590001368DB01FCD410B0BDE8F081002CFAD167
:1005A000054A136823F0805313601368D901FCD403
:1005B00010B0BDE8F08100BF004002400024F4000C
:1005C00060C5000000F500502DE9F04196464A4A0A
:1005D000C0F8101914681368484DB5FBF1F043F0EA
:1005E000A043B5FBF0F590B04D1B04F08074136090
:1005F0001368DE01FCD505284FF0000C22D93F4ED0
:1006000063465A1C0233B0FBF3F7192F07FB03F3C1
:100610000FD8B6FBF3F3CB1A002BB8BF5B42AB424B
:1006200009DA1D4694460B2F06D9122F9CBF1D4692
:1006300094461346E5E7F6D0052FFAD80CF10103EE
:10064000B0FBF3F00538142848D8B5F5967F45DCA3
:1006500000EB40002A4FDFF8A08000F140030DEBD3
:1006600003050FCF6E460FC60FCF0FC60FCF0FC6B5
:1006700097E80F0007C626F8023B1B0C337015F8ED
:100680003F3C15F83E2C15F8401CDB04120402F424
:10069000E02203F46013134301F00702134343F411
:1006A000800343EA0C6343F48043C8F80430D8F86D
:1006B0000430BEF1020F14BF23F0080343F0080317
:1006C000C8F804303CB90C4A136823F08053136017
:1006D0001368DB01FCD410B0BDE8F081002CFAD126
:1006E000054A136823F0805313601368D901FCD4C2
:1006F00010B0BDE8F08100BF00400A400024F400C3
:1007000060C5000000207047002070470820704737
:10071000002070470020704708207047034B19786D
:10072000142081F00101197003F0F4BD3207FF1F9E
:1007300010490B68486B0A68496B02F07F02C1F3ED
:10074000036101320431B2EB410F10D303F07F0398
:10075000C0F30360053B0130A3EB4003DBB2054A65
:10076000106800F07F000130C01AC0B2704700234B
:10077000F5E700BF0040024010490B68486B0A686B
:10078000496B02F07F02C1F3036101320431B2EB25
:10079000410F10D303F07F03C0F30360053B01302A
:1007A000A3EB4003DBB2054A106800F07F00013084
:1007B000C01AC0B270470023F5E700BF00400A40EE
:1007C000624A2DE9F0411468136843F0A04304F035
:1007D000807413601368DD01FCD51168DFF874C103
:1007E0005B4F5A4E002321F0005111609362126852
:1007F000194603EB0C02DD191201AD00D1609160C6
:100800005160116029603268013302F07F02DBB26F
:1008100001329342EDD3B1643161336B336333689A
:1008200000284BD1DFF82C81484E494F054619E08E
:10083000336803F07F030133B0EB930F34BF4FF005
:1008400080634FF08C631360736BC3F300439B07AB
:100850000B603368013503F07F03EDB201339D4235
:10086000284620D2336803F07F030133E91905EBF2
:100870000802B0EB530F4FEA81014FEA0212D7D3BF
:100880004FF00063136033689A0003D5FFF750FF01
:10089000A842DED801231F2D03FA05F34CD8B26A13
:1008A0001343B362D5E73CB9284A136823F0805359
:1008B00013601368DB01FCD4BDE8F08143F0005302
:1008C0003360356815F000553ED0FFF731FF3368CF
:1008D00003F07F03013383420546E4D91D4FDFF85F
:1008E0006C804FF000660DE0D8F828201343C8F85C
:1008F0002830D8F80030013503F07F03EDB2013322
:100900009D42D0D2EB191B011E60D8F8003099002F
:1009100003D5FFF70DFF8542EBD301231F2D03FA0B
:1009200005F3E1D9D8F824200123A5F120018B405B
:100930001343C8F82430DCE7726AA5F120010123D3
:100940008B401343736284E73368C7E7004002407B
:100950002092001008240004624A2DE9F041146836
:10096000136843F0A04304F0807413601368DD0142
:10097000FCD51168DFF874C15B4F5A4E002321F09B
:100980000051116093621268194603EB0C02DD19E5
:100990001201AD00D1609160516011602960326830
:1009A000013302F07F02DBB201329342EDD3B16436
:1009B0003161336B3363336800284BD1DFF82C810E
:1009C000484E494F054619E0336803F07F03013371
:1009D000B0EB930F34BF4FF080634FF08C63136024
:1009E000736BC3F300439B070B603368013503F05F
:1009F0007F03EDB201339D42284620D2336803F0D5
:100A00007F030133E91905EB0802B0EB530F4FEAFE
:100A100081014FEA0212D7D34FF0006313603368AD
:100A20009A0003D5FFF7A8FEA842DED801231F2DA8
:100A300003FA05F34CD8B26A1343B362D5E73CB965
:100A4000284A136823F0805313601368DB01FCD439
:100A5000BDE8F08143F000533360356815F0005570
:100A60003ED0FFF789FE336803F07F0301338342F2
:100A70000546E4D91D4FDFF86C804FF000660DE0AD
:100A8000D8F828201343C8F82830D8F800300135AA
:100A900003F07F03EDB201339D42D0D2EB191B016D
:100AA0001E60D8F80030990003D5FFF765FE854237
:100AB000EBD301231F2D03FA05F3E1D9D8F8242045
:100AC0000123A5F120018B401343C8F82430DCE753
:100AD000726AA5F1200101238B401343736284E7FE
:100AE0003368C7E700400A402092021008A40004BF
:100AF00038B500F500550023614943604B228360FF
:100B0000C3600361C5F80C2985F815390A785D487A
:100B100042F080020A70C26BA1F5822142F01002FD
:100B2000C2634A68584822F400524A60574A5849FA
:100B3000C2F86C110278002A40F08480554B9A6C00
:100B4000B2F5007F04BF00229A64534B4FF4007249
:100B50001A63524B1A78002A00F085804E4A516B76
:100B600000297FD000211970536BB3F5007F494BEA
:100B700008BF51634FF40072DA64494A136823F0E6
:100B800000431360136843F0A04313601368DC0153
:100B9000FCD55368424943F008035360136843F09F
:100BA000804313600B68D802FCD40B683C4A43F0C6
:100BB00000730B6013689901FCD4394C2368DA0187
:100BC000FCD5236843F400332360236843F4803367
:100BD0002360236843F480532360236843F4005365
:100BE0002360236843F480032360236843F40023D5
:100BF0002360236823F408432360636B43F4E023FA
:100C00006363236843F400132360236843F0806325
:100C100023600020FFF7D4FD2368214A23F080538E
:100C200023601368DB01FCD4D5F80C29530903F1C8
:100C30003823403301219B0002F01F0201FA02F227
:100C40001A6038BD144A116B09B9017076E7116B4F
:100C50000370B1F5007F08BF13630E4B4FF40072B1
:100C60009A6476E719700B4BDA6CB2F5007F04BF1B
:100C70000022DA64084B4FF400725A637DE700BF2C
:100C800000500640008004403107FF1F0002FF1F94
:100C90005D04000000A00440009004403007FF1FE6
:100CA0000040024038B5002300F5005543608360E2
:100CB000C3600361414A5E210123C5F80C1985F820
:100CC000153913783E4943F0800313700A6B3D4B8E
:100CD00042F010020A635A6801F5A0414FF4007017
:100CE00022F400525A60086648661A683649374846
:100CF00022F000421A601A68C1F8B80142F0A0421E
:100D00001A601A68D201FCD559682E4A41F00801D0
:100D10005960196841F0804119601368DC02FCD405
:100D20001368284943F0007313600B689801FCD4E2
:100D3000244C2368DA01FCD5236843F40033236094
:100D4000236843F480332360236843F48053236093
:100D5000236843F400532360236843F48003236033
:100D6000236843F400232360236823F408432360AB
:100D7000636B43F4E0236363236843F4001323604D
:100D8000236843F0806323600020FFF7E5FD2368BC
:100D90000C4A23F0805323601368DB01FCD4D5F8A0
:100DA0000C29530903F13823403301219B0002F041
:100DB0001F0201FA02F21A6038BD00BF005006405F
:100DC0000080044000400A400002FF1F7104000040
:100DD0002DE9F84F01210D2003F0D4FA01210D2057
:100DE00003F098FA0121062003F0CCFA0021062036
:100DF00003F090FA0121152003F0C4FA414B424C54
:100E00001978152003F086FA0121142003F0BAFAAC
:100E10003E4B1420197803F07DFA0221062003F0DE
:100E2000B1FA0221072003F0ADFA0221082003F0F5
:100E3000A9FA3748FFF75CFE364935480022FFF72C
:100E400021FB236843F0A04323602368DA01FCD52B
:100E500000202568FFF7B4FC236B2363236823F08D
:100E60007F032360236843F00F032360AB0000F18E
:100E7000DC84254C236823F0805323602368DF0142
:100E8000FCD40120FFF79CFC23689E000AD5A36ACE
:100E90009D0607D4A36A23F0FF03A362A36A43F06D
:100EA0002003A362184C1C4A23681C4EC2F8046835
:100EB00013F0005A40F02E8419481A4D1A4FDFF8EB
:100EC0006C801A2104F030F82368544604EB0509BD
:100ED0004FEA0919D9F80030C3F303630E2B00F26F
:100EE000B580DFE813F0830271025F02B3004402B1
:100EF000B3003202B30020020E02FC01B300250051
:100F0000B300EA013407FF1F004002403207FF1F11
:100F1000E80EFF1F90D00300E82EFF1F1D07000002
:100F2000BCC40000082400048C40024080BFFDBF08
:100F30000421804803F0F8FF002351460A227E482E
:100F400002F0C4FF7D481D2103F0EEFFD9F8003008
:100F5000980240F17B847A48102103F0E5FFD9F82C
:100F600008A0D9F8043009EB080B23F060490721E9
:100F7000744803F0D9FF0023102249466E4802F05E
:100F8000A5FF0121704803F0CFFF0A216F4803F04D
:100F9000CBFF002310224FEA1A61674802F096FF48
:100FA00001216B4803F0C0FF00231022CAF3074160
:100FB000614802F08BFF0121654803F0B5FF002373
:100FC0001022CAF307215C4802F080FF012160482B
:100FD00003F0AAFF002310225FFA8AF1564802F0BC
:100FE00075FF5BF807905A48012103F09DFF00232D
:100FF00010224FEA1961504802F068FF012154485D
:1010000003F092FF00231022C9F307414A4802F07F
:101010005DFF01214E4803F087FF00231022C9F332
:101020000721454802F052FF0121494803F07CFFA7
:101030005FFA89F1002310223F4802F047FF42483F
:10104000012103F071FF3C4802F01AFF414B1B687D
:10105000013403F07F03E4B201339C42A246FFF463
:1010600035AF3D483D4CFFF71DFE3D493A48002253
:10107000FFF7A8FA236843F0A04323602368D9014F
:10108000FCD500202568FFF767FC236B23632368EA
:1010900023F07F0323602368AA0043F00F0323603B
:1010A00000F1BF832D4C236823F080532360236815
:1010B000DB01FCD40120FFF74FFC23689F000AD519
:1010C000A36A9D0607D4A36A23F0FF03A362A36A61
:1010D00043F02003A362214C224A2368C2F804682B
:1010E00013F0005940F06B821F48204D204E214FD5
:1010F0001A2103F019FF23684C4604EB05084FEA58
:101100000818D8F80030C3F303630E2B00F2C18037
:10111000DFE813F0430231021F02BF000402BF00E8
:10112000F201BF00B401A2019001BF003200BF0074
:101130007E0100BF8CC300005807FF1F4CC4000095
:101140006CC4000094C40000C8C300009CC400002C
:1011500030C30000004002400038FF1F00400A403A
:1011600090D003000058FF1FBCC4000008A4000476
:101170008C400A4080BFF5BF0421C94803F0D4FE6B
:10118000002349460A22C74802F0A0FEC6481D2196
:1011900003F0CAFED8F800309B0240F14B83C348ED
:1011A000102103F0C1FED8F80890D8F80430B844F4
:1011B00023F0604A0721BE4803F0B6FE0023102248
:1011C0005146B84802F082FE0121BA4803F0ACFE55
:1011D0000A21B94803F0A8FE002310224FEA196142
:1011E000B04802F073FE0121B44803F09DFE0023D5
:1011F0001022C9F30741AB4802F068FE0121AF4855
:1012000003F092FE00231022C9F30721A54802F043
:101210005DFE0121A94803F087FE002310225FFA3A
:1012200089F1A04802F052FE58F80680A348012137
:1012300003F07AFE002310224FEA1861994802F069
:1012400045FE01219D4803F06FFE00231022C8F3E4
:101250000741944802F03AFE0121984803F064FEE9
:1012600000231022C8F307218E4802F02FFE01212F
:10127000924803F059FE5FFA88F100231022894852
:1012800002F024FE8B48012103F04EFE854802F057
:10129000F7FD8B4B1B68013403F07F03E4B201338D
:1012A0009C42A146FFF429AF864B8748186008216D
:1012B0000122D972DA71BDE8F88F0421784803F071
:1012C00033FE514600230A22764802F0FFFD112129
:1012D0007E4803F029FE734802F0D2FDB6E60421F1
:1012E0006F4803F021FE514600230A226D4802F0A8
:1012F000EDFD1121764803F017FE6A4802F0C0FDAB
:10130000A4E60421664803F00FFE514600230A229A
:10131000644802F0DBFD0F216E4803F005FE6148D2
:1013200002F0AEFD92E604215D4803F0FDFD51465A
:1013300000230A225B4802F0C9FD1221664803F02F
:10134000F3FD584802F09CFD80E60421544803F068
:10135000EBFD514600230A22524802F0B7FD11214D
:101360005E4803F0E1FD4F4802F08AFD6EE604217D
:101370004B4803F0D9FD0A2251460023494802F0A8
:10138000A5FD0F21564803F0CFFDD9F800309B0290
:101390004CBF54485448112103F0C6FD414802F0A7
:1013A0006FFD53E604213E4803F0BEFD5146002385
:1013B0000A223C4802F08AFD0E214C4803F0B4FD9D
:1013C000384802F05DFD41E60421354803F0ACFDEC
:1013D000514600230A22334802F078FD0E2144488A
:1013E00003F0A2FD2F4802F04BFD2FE604212C480C
:1013F00003F09AFD514600230A222A4802F066FDB6
:1014000012213C4803F090FD264802F039FD1DE60C
:101410000421234803F088FD494600230A2221487D
:1014200002F054FD1121294803F07EFD1D4802F011
:1014300027FD2EE704211A4803F076FD49460023D4
:101440000A22184802F042FD1121214803F06CFDE8
:10145000144802F015FD1CE70421114803F064FD57
:10146000494600230A220F4802F030FD0F21194897
:1014700003F05AFD0B4802F003FD0AE70421084877
:1014800003F052FD494600230A22064802F01EFDE1
:101490001221114803F048FD024802F0F1FCF8E681
:1014A0008CC300005807FF1F4CC400006CC4000030
:1014B00094C40000C8C300009CC4000030C30000F6
:1014C00000400A403807FF1F3911F219A8C4000074
:1014D00004C400003CC4000028C40000F0C30000A5
:1014E000A8C30000B8C30000CCC30000E0C30000E4
:1014F00018C4000094C300000421744803F014FDD4
:10150000494600230A22724802F0E0FC112171488A
:1015100003F00AFD6E4802F0B3FCBAE604216B4802
:1015200003F002FD0A2249460023694802F0CEFC7E
:101530000F21694803F0F8FCD8F800309A024CBF3C
:1015400066486748112103F0EFFC614802F098FCFF
:101550009FE604215D4803F0E7FC494600230A2288
:101560005B4802F0B3FC0E215E4803F0DDFC5848F6
:1015700002F086FC8DE60421544803F0D5FC494670
:1015800000230A22524802F0A1FC0E21564803F023
:10159000CBFC4F4802F074FC7BE604214B4803F07F
:1015A000C3FC494600230A22494802F08FFC12215D
:1015B0004E4803F0B9FC464802F062FC69E611218E
:1015C0004B4803F0B1FCA36A9C064BBF11211221CA
:1015D0004848494803F0A8FC3D4802F051FC162158
:1015E000464803F0A1FC464A1468516B1368526BDD
:1015F00003F07F03C2F3036201330432B3EB420F03
:10160000C0F0148404F07F04C1F30361053C013190
:10161000A4EB4104E5B23A4E2D48316801F07F0158
:101620000131491BC9B22029A8BF202102F020FCAA
:10163000274802F025FC1621324803F075FC336878
:10164000726B234803F07F03C2F303620133043259
:10165000B3EB420F38BF00244FF0000321464FF098
:101660000A0238BF254602F031FC194802F008FC96
:10167000234B1C681B6804F07F040134641B03F0D7
:101680007F03E4B20133A3427FF60EAE1E4D1F4E20
:101690001F4F04EB05084FEA0818D8F80030C3F3D1
:1016A00003630E2B00F2E282DFE813F04F033D03E9
:1016B0002B03E0021003E0029C03E0026103AE038F
:1016C000FE02E0025302E002EC0200BF8CC3000005
:1016D0005807FF1FF0C30000A8C30000B8C30000F4
:1016E000CCC30000E0C3000018C4000094C3000095
:1016F00020C3000034C3000048C300005CC30000E6
:1017000000400A4074C3000008A400048C400A4052
:1017100080BFF5BF1121C04803F006FCA36A9C06F8
:101720004BBF11211221BD48BD4803F0FDFBBD4850
:1017300002F0A6FB1621BC4803F0F6FBBB4A146876
:10174000516B1368526B03F07F03C2F303620133E2
:101750000432B3EB420FC0F0F98104F07F04C1F30F
:101760000361053C0131A4EB4104E5B2AF4FAD4844
:10177000396801F07F010131491BC9B22029A8BF96
:10178000202102F075FBA74802F07AFB1621A84839
:1017900003F0CAFB3B687A6BA24803F07F03C2F3F5
:1017A000036201330432B3EB420F38BF00244FF021
:1017B000000321464FF00A0238BF254602F086FB9F
:1017C000984802F05DFB994B1C681B6804F07F048D
:1017D0000134641B03F07F03E4B20133A3427FF6BC
:1017E00040AC944D944FDFF8888204EB05094FEA32
:1017F0000919D9F80030C3F303630E2B00F2C1803E
:10180000DFE813F05C014A013801BF00EF00BF00C0
:101810008001BF006E019201DD00BF003200BF00F9
:10182000CB000120FFF798F83CE40120FEF7C8FF49
:10183000FFF71FBB8148102103F076FBD8F8089012
:10184000D8F80430B844C3F38A4AB3E47B48102183
:1018500003F06AFBD9F808A0D9F8043009EB080BAB
:10186000C3F38A49FFF783BB0421754803F05CFB8F
:1018700000230A2221466B4802F028FB71481D21F3
:1018800003F052FBD9F800309A0240F1DF826E4833
:10189000102103F049FBD9F808A0D9F80430C1445D
:1018A00023F0604B0721694803F03EFB0023102220
:1018B00059465C4802F00AFB0121654803F034FBFD
:1018C0000A21644803F030FB002310224FEA1A611A
:1018D000544802F0FBFA01215F4803F025FB002386
:1018E0001022CAF307414F4802F0F0FA01215A488A
:1018F00003F01AFB00231022CAF30721494802F023
:10190000E5FA0121544803F00FFB002310225FFA8F
:101910008AF1444802F0DAFA59F807904E4801215A
:1019200003F002FB002310224FEA19613D4802F048
:10193000CDFA0121484803F0F7FA00231022C9F339
:101940000741384802F0C2FA0121434803F0ECFA9B
:1019500000231022C9F30721324802F0B7FA01210F
:101960003D4803F0E1FA5FFA89F1002310222D4887
:1019700002F0ACFA3648012103F0D6FA294802F009
:101980007FFA2A4B1B68013403F07F03E4B2013372
:101990009C42FFF42AAFFFF764BB0421284803F000
:1019A000C3FA00230A2221461E4802F08FFA1121B1
:1019B0002A4803F0B9FA1B4802F062FAE1E7042171
:1019C0001F4803F0B1FA00230A222146154802F00D
:1019D0007DFA1121224803F0A7FA124802F050FACA
:1019E000CFE70421164803F09FFA0A22002321467C
:1019F0000C4802F06BFA0F211A4803F095FAD9F857
:101A0000003098024CBF18481848112103F08CFA96
:101A1000044802F035FAB4E720C3000034C30000E4
:101A200048C300005807FF1F5CC30000004002408D
:101A300074C30000082400048C40024080C40000ED
:101A40008CC300004CC400006CC4000094C40000AF
:101A5000C8C300009CC4000030C30000A8C400003C
:101A600004C40000A8C30000B8C30000CCC3000039
:101A700080BFFDBF0421C74803F056FA00230A22A5
:101A80002146C54802F022FA0E21C44803F04CFA60
:101A9000C14802F0F5F974E70421BE4803F044FAA6
:101AA00000230A222146BC4802F010FA0E21BC484D
:101AB00003F03AFAB84802F0E3F962E70421B548C6
:101AC00003F032FA00230A222146B34802F0FEF95D
:101AD0001221B44803F028FAAF4802F0D1F950E7D8
:101AE0000421AC4803F020FA00230A222146AA4828
:101AF00002F0ECF91221AC4803F016FAA64802F005
:101B0000BFF93EE70421A34803F00EFA00230A229E
:101B10002146A14802F0DAF91121A44803F004FAA1
:101B20009D4802F0ADF92CE704219A4803F0FCF936
:101B300000230A222146984802F0C8F90F219C4848
:101B400003F0F2F9944802F09BF91AE700242546C5
:101B50000CE604218F4803F0E7F900230A2221460E
:101B60008D4802F0B3F91D21924803F0DDF9D8F851
:101B70000030990240F15E818F48102103F0D4F9C2
:101B8000D8F80890D8F80430B84423F0604A072108
:101B90008A4803F0C9F90023102251467E4802F01A
:101BA00095F90121864803F0BFF90A21854803F021
:101BB000BBF9002310224FEA1961774802F086F939
:101BC0000121814803F0B0F900231022C9F3074135
:101BD000714802F07BF901217B4803F0A5F900234D
:101BE0001022C9F307216C4802F070F901217648F0
:101BF00003F09AF9002310225FFA89F1664802F097
:101C000065F958F806807048012103F08DF900232A
:101C100010224FEA1861604802F058F901216A4821
:101C200003F082F900231022C8F307415A4802F05A
:101C30004DF90121644803F077F900231022C8F31D
:101C40000721554802F042F901215F4803F06CF981
:101C50005FFA88F1002310224F4802F037F9584804
:101C6000012103F061F94C4802F00AF9574B1B6857
:101C7000013403F07F03E4B201339C42FFF409AD69
:101C8000FFF712BB0421434803F04EF900230A2258
:101C90002146414802F01AF911214D4803F044F958
:101CA0003D4802F0EDF8E1E704213A4803F03CF941
:101CB00000230A222146384802F008F9112145483C
:101CC00003F032F9344802F0DBF8CFE70421314861
:101CD00003F02AF90A22002321462F4802F0F6F8E1
:101CE0000F213D4803F020F9D8F8003098024CBF8E
:101CF0003A483B48112103F017F9274802F0C0F891
:101D0000B4E70421234803F00FF900230A222146F7
:101D1000214802F0DBF80E21204803F005F91E48A7
:101D200002F0AEF8A2E704211A4803F0FDF8002300
:101D30000A222146184802F0C9F80E21184803F07B
:101D4000F3F8154802F09CF890E70421114803F0DD
:101D5000EBF800230A2221460F4802F0B7F81221BF
:101D6000104803F0E1F80C4802F08AF87EE70421FD
:101D7000084803F0D9F800230A222146064802F059
:101D8000A5F81221084803F0CFF8034802F078F8CC
:101D90006CE700BF8CC300005807FF1FE0C30000C2
:101DA00018C4000094C3000028C40000F0C3000061
:101DB0003CC400004CC400006CC4000094C400008B
:101DC000C8C300009CC4000030C3000000400A40AB
:101DD000A8C4000004C40000A8C30000B8C30000E9
:101DE000CCC3000004211F4803F09EF800230A2200
:101DF00021461D4802F06AF811211C4803F094F8AE
:101E0000194802F03DF831E70421164803F08CF838
:101E100000230A222146144802F058F80F211448E2
:101E200003F082F8104802F02BF81FE70024254643
:101E3000FFF7F1BB0F48102103F076F8D8F80890AF
:101E4000D8F80430B844C3F38A4AA0E60948102100
:101E500003F06AF8D9F808A0D9F80430C144C3F3F4
:101E60008A4B1FE58CC300005807FF1FF0C300001A
:101E70003CC4000080C4000010B50B78632B0446FE
:101E800082B0104613D003F51C6304EB83035B6838
:101E900013B101929847019804F50054D4F804381E
:101EA0001BB102B0BDE81040184702B010BD04F5E8
:101EB0000054D4F80437002BF0D0019298470198D1
:101EC000ECE700BF1F2910B41B4823D8046B012383
:101ED0008B4023430363194BD0790B441B014FF014
:101EE00000611960F8B11068117A20F060400905AE
:101EF000586041F4C001D0685DF8044B00BA9860A6
:101F0000106900BAD860D27A41EA024242F04062D7
:101F10001A607047C46AA1F1200C012303FA0CF384
:101F20002343C362D7E714680548117A00EA844066
:101F300058600905DFE700BF00400A4008A400041C
:101F40000000FC1F2DE9F04300F500578FB097F813
:101F50000037044613B9012387F80037238B9BB25F
:101F6000002B4FD1D7F80C29530903F138236033E4
:101F70009B0002F01F02012101FA02F204F58056D3
:101F80001A60B6F81E3B9BB223B3B6F81A1B1A238D
:101F900001F00F0103FB014101F5D9511231182263
:101FA00008A808AD01F0A4FF0FCD0DF1080CACE8B6
:101FB0000F0095E803008CE803009DF91C104B1CF2
:101FC0004AD0534B0B441B011B68C3F30363082B1C
:101FD00000F08180D7F80C29530903F138234033EE
:101FE0009B00012102F01F0201FA02F21A60238B0A
:101FF000B6F81E0B9BB280B2002140EA03300FB04E
:10200000BDE8F083A18A1A23C9B203FB014118225B
:1020100001F58E7108A801F06BFFA38A0133C3F3A9
:102020000803A382238B9BB21BB1238B013B9BB282
:10203000238308AD0FCD02AE0FC695E8030086E8F6
:10204000030002AA9DF81C308DF807300DF107013E
:102050002046FFF711FF85E7DFF8B880D8F8005079
:1020600015F0005550D0FEF787FBD8F8003003F08C
:102070007F03013383420546ACD9DFF89490DFF843
:10208000948008E0D8F80030013503F07F03EDB20A
:1020900001339D429ED205EB09031B011B68C3F36C
:1020A0000363082BEED102AA29462046FFF70AFF58
:1020B000B6F81A3B013303F01F03A6F81A3BB6F833
:1020C0001E3B9BB2002BDDD0B6F81E3B013B9BB202
:1020D000A6F81E3BD6E702AAC9B22046FFF7F2FED9
:1020E000B6F81A3B013303F01F03A6F81A3BB6F803
:1020F0001E3B9BB2002B3FF46DAFB6F81E3B013B7D
:102100009BB2A6F81E3B65E7D8F80030B5E700BFE4
:1021100008A4000400400A4043884FF01A0C03F062
:102120000F030CFB030310B5044600209875638869
:1021300003F00F030CFB0343DA75608800F00F0017
:102140000CFB0040183004F0CFF9628823889BB262
:1021500092B283F010039A4204D12388013303F032
:102160001F0323806388013303F01F036380A38868
:102170009BB20F2B03D8A38801339BB2A38010BD61
:10218000F0B58B7D4D4E8DB00D460446002B4BD1E6
:10219000336813F0005C25D0FEF7EEFA336803F0E5
:1021A0007F030133984284461ED24549434807E0E5
:1021B000036803F07F035FFA82FC01339C4513D26E
:1021C0000CEB01031B010CF101021B68C3F3036359
:1021D000082BEDD120462A466146FFF773FE012009
:1021E0000DB0F0BD3368E0E70FCDEC46ACE80F0072
:1021F00095E803008CE803004FF0FF0E8DF814E023
:102200006F460FCF06AE0FC69CE8030086E80300BA
:10221000182204F5D8500DEB02011A30FFF77CFFAD
:102220004FF0FF300DB0F0BD306810F0005042D0DC
:10223000FEF7A2FA336803F07F030133834229D902
:102240001F4E1E4F05E03B6803F07F0301339842A9
:1022500020D283191B01411C1A6812018446C8B29E
:10226000F1D51B68C3F30363082B1BD00FCD6E465B
:102270000FC695E8030086E80300EE468DF814C00B
:10228000BEE80F0006AF0FC796E80300182287E8E4
:102290000300BEE70B4B1B68C3F30363082B4FF02F
:1022A000FF3CE3D120462A465FFA8CF1FFF70AFE95
:1022B00001200DB0F0BD3368C2E700BF00400A4006
:1022C00008A4000470400A402DE9F041082086B0BF
:1022D00002F04AF8354E364D364C374FB0FA80F39F
:1022E0005B090620337002F03FF8B0FA80F35B0917
:1022F00007202B7002F038F8B0FA80F040092978F6
:102300002070152002F006F82178142002F002F85F
:1023100039780D2001F0FEFF2848FFF713FE284909
:1023200028480B680493049B02689B1A632B02D80D
:1023300006B0BDE8F0810B680593059B96F8008018
:1023400003602E780B68204D39780393FF2324789F
:10235000EB7381F00101039B39702B61294617480B
:1023600085F80C806E73AC73FFF70AFF2B6801933E
:102370001649174800944346324601F099FDEB7A1E
:1023800073B10024134F124E23462B4439461A7B57
:10239000304601F08DFD0134EA7AE3B29A42F4D876
:1023A0000B4806B0BDE8F04101F06ABD3507FF1FDC
:1023B0005007FF1F5107FF1F3307FF1F0038FF1F84
:1023C0002461FF1F2061FF1F3807FF1FD8C40000D2
:1023D0005807FF1F10C5000000F58053D3F8003EDA
:1023E000DB006BD5384B2DE9F04F5F6BC7F303670C
:1023F000FF00002241F6146B083741F6046941F6EC
:10240000086A07E01D686D0F052D34D00132D3B284
:102410009F4255D902EB420E00EBCE0404F5F05377
:102420001D686D0F012D0ED01D686D0F022DE9D1B5
:1024300054F809308B42E9D854F80A308B42E5D37E
:102440000120BDE8F08F1C6814F4607FDED04FEAF5
:102450004E0E002404E01D68C5F3C215AC42D5D26F
:1024600001340EEB040505F5F065E4B250F8255093
:102470008D42F0D1E4E71D6815F4607FC6D05C445E
:102480004FEA4E0E4FF0010C05E01D68C5F3C21572
:102490000135AC45BAD20EEB0C0505F5F0652668A2
:1024A00050F82550D4F800800E4005EA08050CF1DC
:1024B000010CAE425FFA8CFCE7D1C1E70120704706
:1024C0000020BDE8F08F00BF00400A4001EB410151
:1024D00070B500EBC10505F5045EDEF80030DB00E9
:1024E00028D5DEF800305B0F012B0BD0DEF8003072
:1024F0005B0F022B42D0DEF800305B0F052B1BD0A8
:10250000002070BDDEF8004014F4607FF8D0002396
:102510004D0005E0DEF80010C1F3C21C6345EFD2A8
:10252000013305EB030C0CF5046CDBB250F82C40C6
:102530009442EFD1012070BDDEF8004014F4607FBA
:10254000DED005F5045514354900012307E0DEF817
:102550000040C4F3C21C0CF1010C6345D0D22C68BE
:1025600004EA020CCC1804F50464013350F824404A
:102570002E683440A445DBB2E9D1DBE742F2041314
:10258000EB589342BCD842F20813E858904234BF4B
:102590000020012070BD00BF83889BB20F2B03D8A1
:1025A000838801339BB283804288B0F802C00388DD
:1025B00002F00F029BB202321FFA8CFC83F0100370
:1025C0009C4540F8221004D10388013303F01F0317
:1025D00003804388013303F01F034380704700BF2B
:1025E00083889BB20F2B03D8838801339BB28380EF
:1025F0004288B0F802C0038802F00F029BB200EBE1
:1026000042021FFA8CFC83F010039C45D18004D158
:102610000388013303F01F0303804388013303F071
:102620001F034380704700BF00F58053D3F8003E7E
:10263000DB006BD5384B2DE9F04F5F6BC7F30367B9
:10264000FF00002241F6146B083741F6046941F699
:10265000086A07E01D686D0F052D34D00132D3B232
:102660009F4255D902EB420E00EBCE0404F5F05325
:102670001D686D0F012D0ED01D686D0F022DE9D163
:1026800054F809308B42E9D854F80A308B42E5D32C
:102690000120BDE8F08F1C6814F4607FDED04FEAA3
:1026A0004E0E002404E01D68C5F3C215AC42D5D21D
:1026B00001340EEB040505F5F065E4B250F8255041
:1026C0008D42F0D1E4E71D6815F4607FC6D05C440C
:1026D0004FEA4E0E4FF0010C05E01D68C5F3C21520
:1026E0000135AC45BAD20EEB0C0505F5F065266850
:1026F00050F82550D4F800800E4005EA08050CF18A
:10270000010CAE425FFA8CFCE7D1C1E701207047B3
:102710000020BDE8F08F00BF0040024001EB410106
:1027200070B500EBC10505F5045EDEF80030DB0096
:1027300028D5DEF800305B0F012B0BD0DEF800301F
:102740005B0F022B42D0DEF800305B0F052B1BD055
:10275000002070BDDEF8004014F4607FF8D0002344
:102760004D0005E0DEF80010C1F3C21C6345EFD256
:10277000013305EB030C0CF5046CDBB250F82C4074
:102780009442EFD1012070BDDEF8004014F4607F68
:10279000DED005F5045514354900012307E0DEF8C5
:1027A0000040C4F3C21C0CF1010C6345D0D22C686C
:1027B00004EA020CCC1804F50464013350F82440F8
:1027C0002E683440A445DBB2E9D1DBE742F20413C2
:1027D000EB589342BCD842F20813E858904234BFF9
:1027E0000020012070BD00BF1F2910B41B4823D852
:1027F000046B01238B4023430363194BD0790B44B3
:102800001B014FF000611960F8B11068117A20F0D7
:1028100060400905586041F4C001D0685DF8044B80
:1028200000BA9860106900BAD860D27A41EA0242D0
:1028300042F040621A607047C46AA1F1200C012383
:1028400003FA0CF32343C362D7E714680548117AEF
:1028500000EA844058600905DFE700BF00400240FD
:10286000082400040000FC1FF0B58B7D4D4E8DB098
:102870000D460446002B4BD1336813F0005C25D085
:10288000FDF756FF336803F07F0301339842844617
:102890001ED24549434807E0036803F07F035FFA0F
:1028A00082FC01339C4513D20CEB01031B010CF19C
:1028B00001021B68C3F30363082BEDD120462A46AF
:1028C0006146FFF791FF01200DB0F0BD3368E0E7EE
:1028D0000FCDEC46ACE80F0095E803008CE8030050
:1028E0004FF0FF0E8DF814E06F460FCF06AE0FC607
:1028F0009CE8030086E80300182204F5D8500DEB8D
:1029000002011A30FFF708FC4FF0FF300DB0F0BDA8
:10291000306810F0005042D0FDF70AFF336803F032
:102920007F030133834229D91F4E1E4F05E03B68C8
:1029300003F07F030133984220D283191B01411C0D
:102940001A6812018446C8B2F1D51B68C3F3036349
:10295000082B1BD00FCD6E460FC695E8030086E806
:102960000300EE468DF814C0BEE80F0006AF0FC797
:1029700096E80300182287E80300BEE70B4B1B68AC
:10298000C3F30363082B4FF0FF3CE3D120462A46F4
:102990005FFA8CF1FFF728FF01200DB0F0BD33681E
:1029A000C2E700BF0040024008240004704002401B
:1029B00010B50B78632B044682B0104613D003F594
:1029C0001C6304EB83035B6813B101929847019881
:1029D00004F50054D4F804381BB102B0BDE810402F
:1029E000184702B010BD04F50054D4F80437002B8A
:1029F000F0D0019298470198ECE700BF2DE9F04331
:102A000000F500578FB097F80037044613B901233B
:102A100087F80037238B9BB2002B4FD1D7F80C29B6
:102A2000530903F1382360339B0002F01F02012198
:102A300001FA02F204F580561A60B6F81E3B9BB20A
:102A400023B3B6F81A1B1A2301F00F0103FB01414F
:102A500001F5D9511231182208A808AD01F048FA41
:102A60000FCD0DF1080CACE80F0095E803008CE8E1
:102A700003009DF91C104B1C4AD0534B0B441B0107
:102A80001B68C3F30363082B00F08180D7F80C297F
:102A9000530903F1382340339B00012102F01F0248
:102AA00001FA02F21A60238BB6F81E0B9BB280B2B9
:102AB000002140EA03300FB0BDE8F083A18A1A2359
:102AC000C9B203FB0141182201F58E7108A801F07B
:102AD0000FFAA38A0133C3F30803A382238B9BB2AB
:102AE0001BB1238B013B9BB2238308AD0FCD02AEFC
:102AF0000FC695E8030086E8030002AA9DF81C3083
:102B00008DF807300DF107012046FFF751FF85E7EB
:102B1000DFF8B880D8F8005015F0005550D0FDF718
:102B200007FED8F8003003F07F03013383420546E7
:102B3000ACD9DFF89490DFF8948008E0D8F8003042
:102B4000013503F07F03EDB201339D429ED205EBC8
:102B500009031B011B68C3F30363082BEED102AA10
:102B600029462046FFF740FEB6F81A3B013303F032
:102B70001F03A6F81A3BB6F81E3B9BB2002BDDD014
:102B8000B6F81E3B013B9BB2A6F81E3BD6E702AA55
:102B9000C9B22046FFF728FEB6F81A3B013303F00E
:102BA0001F03A6F81A3BB6F81E3B9BB2002B3FF45E
:102BB0006DAFB6F81E3B013B9BB2A6F81E3B65E726
:102BC000D8F80030B5E700BF0824000400400240F8
:102BD00043884FF01A0CDBB20CFB030310B504461C
:102BE000002083F806016388DBB20CFB034383F803
:102BF00007216088C0B20CFB004000F5847003F030
:102C000073FC628823889BB292B283F480739A42E9
:102C100004D123880133C3F308032380638801337D
:102C2000C3F308036380A3889BB2FF2B03D8A38858
:102C300001339BB2A38010BD2DE9F04F8C460F46A7
:102C40000646054600F11008BCE80F008DB06C4642
:102C50000FC49CE8030084E80300DFF894A04FF061
:102C6000010955F8044F5CB19DF91420A36809FAD5
:102C700002F1194220D02368D3F800B0D34516D111
:102C80004545EED106F5005393F8003723B31822DB
:102C900039460DEB020001F02BF918220DEB020171
:102CA00006F11400FFF794FF0DB0BDE8F08F9DF81A
:102CB000153069462046D847237C002BE0D0236896
:102CC000D3F800B09DF81530D345D9D020464FF049
:102CD000FF326946D847D3E73B7D8DF818303A4636
:102CE00006A93046FFF7C8F80DB0BDE8F08F00BF69
:102CF0005904000000F5005393F80137002B00F051
:102D0000DB802DE9F04F0F4605460E460FCF89B008
:102D100002AC0FC497E8030084E80300DFF850C258
:102D2000DCF800309B0052D5DCF83430C3F3036A82
:102D300000244FEACA0A0AF1080A22464FF0630942
:102D40000CE05B0F022B3B6800F09A805B0F052BB9
:102D500000F0DD800134E2B2924538D996F91430A2
:102D6000632B34D004EB440805EBC80B0BF5F0578C
:102D70003B6813F0604FEDD03B685B0F012B3B6865
:102D8000DFD1F279C3F300439A42E3D13B6813F4F5
:102D9000607FDFD04FEA480B002306E03A685FFA15
:102DA00088F3C2F3C2129342D4D203F101080BEBB1
:102DB000080303F5F063029A55F823309A42EDD1E7
:102DC00002A928468DF81C90FFF736FFE6E7684F0A
:102DD00000238DF80E303C6814F000543FD0FDF70E
:102DE000CBFC3B6803F07F0301338342044633D9B5
:102DF000DFF87C9142F2041742F2081896F9143079
:102E0000A34220D004EB440105EBC10202F5045AB1
:102E1000DAF8003013F0604F15D0DAF80030F079AE
:102E2000C3F3C06398420ED1DAF800305B0F012B78
:102E3000DAF8003041D05B0F022B12D0DAF8003004
:102E40005B0F052B5BD0D9F80030013403F07F0312
:102E5000E4B201339C42D1D309B0BDE8F08F3B68A6
:102E6000C6E7D159029B8B42EDD352F8082093421A
:102E7000E9D802A928468DF81C40FFF7DDFEE2E7FD
:102E8000F279C3F300439A427FF464AF41F60463DE
:102E90005BF80320029B9342FFF45CAF41F60862AB
:102EA0005BF8022093423FF655AF02A928468DF801
:102EB0001C90FFF7C1FE4DE7704713F4607FC2D04E
:102EC0004A00002307E0DAF800105FFA8BF3C1F341
:102ED000C2118B42B7D203F1010B02EB0B0303F5D6
:102EE0000463029955F823309942ECD102A928468F
:102EF00000928DF81C40FFF79FFE009AE3E7029ACC
:102F000021462846FFF7E2FA00289CD0B1E73B684B
:102F100013F4607F3FF41EAF0BF5F0531433012719
:102F20000AE00BF5F05101370968C1F3C211FFB295
:102F300001318F42BFF40EAF07EB480101F5F0619C
:102F4000186855F821E00299D3F800C008400EEA4D
:102F50000C018842E5D102A9284601938DF80E2084
:102F600000928DF81C90FFF767FEDDE90023D8E79B
:102F700000400A402DE9F04FB94DBA4F81460FCDC0
:102F800097B004AC0FC495E8030084E80300B96A65
:102F9000386B3B68019013F400434FF000068B46FA
:102FA00003D13A68940000F1EB80AE4D019B2C6890
:102FB00043F00103B3FA83F3C3F1200314F0005488
:102FC0005FFA83FA00F04F82FDF7D6FB2B6803F01F
:102FD0007F0301338342044640F29E80824540F2E3
:102FE0009B80671CDFF87C82FDB216E0062900F0AA
:102FF000AD80042900F03E81082900F0D781D8F87F
:10300000003003F07F030133AB42FCB240F2848016
:10301000A24505F101057FD9671CC4F12002A4F186
:10302000200306FA02F22BFA04F126FA03F3114305
:103030001943C907E3D50199E14011431943C90771
:10304000DDD5894BE3181B011A68C2F3036102291D
:10305000CCD102F400115868002914BF4FF0010CC4
:103060004FF0000C20F060408DF817C07FD1800C2D
:103070000490ADF81420C2F303428DF81B2009F52B
:1030800000528DF8244092F815298DF825209A6871
:103090008DF81F209A68120A8DF81E209A68120C6B
:1030A0008DF81D209A68120E8DF81C20DA688DF8B4
:1030B0002320DA68120A8DF82220DA68120C8DF8C3
:1030C0002120DA6800294FEA12628DF8202014BF0F
:1030D0004FF08C624FF080621A60D8F80830D8F850
:1030E00030200123A3401343C8F83030049A21460E
:1030F0004846FFF7EBF9002840F0538104A9484601
:10310000FFF7F8FD04A8AFF3008004A8AFF3008038
:1031100004A8AFF3008072E7524E544D346A2B6816
:1031200084EA0302524B13403BB109F58053B3F8D4
:10313000D43C9BB20F2B40F298814A4A136A234336
:103140001362BFF34F8F17B0BDE8F08F02F4001188
:103150005868002914BF4FF0010C4FF0000C20F00C
:1031600060408DF817C005D1800C049004E00490F5
:1031700001217EE70490012101208DF8190078E7F4
:103180008A067FF512AF85067FF50FAFD7F880204E
:10319000ADF81420C2F303418DF81B10D7F884104A
:1031A000304C02F40010B04221F06041C2F30050F4
:1031B0008DF818004FEAD25212BF01203046890C18
:1031C0008DF817008DF81620049108A80022D4F875
:1031D0008810D1400832202A00F8011DF7D121487B
:1031E00009A9D0F88C20DA400833202B01F8012DF2
:1031F000F7D109F5005393F815398DF8253063237D
:103200008DF824308368036B43F020030363019B34
:103210005C0603D5036B43F040030363019B180670
:1032200004D5104A136B43F08003136304A9484686
:10323000FFF760FD04A8AFF3008004A8AFF300809F
:1032400004A8AFF3008004994846FFF7C5F80028AA
:103250003FF4ABAE04A94846FFF7EEFCA5E600BF7D
:10326000A0C5000000400A4008A40004E40EFF1FAF
:10327000BFFF070002F4001100295968ADF81420BF
:10328000C2F303428DF81B2009F5005214BF012040
:1032900000208DF8170092F815098DF824408DF85C
:1032A000250098688DF81F0098684FEA10208DF867
:1032B0001E0098684FEA10408DF81D0098684FEA8C
:1032C00010608DF81C00D8688DF82300D8684FEA8C
:1032D00010208DF82200D86821F0604108BF890CC9
:1032E000000C04918DF8210004F60221D86859F8E9
:1032F0002110000E8DF8200029B104A8039202933A
:103300008847039A029BD2F808291AB104A80293AD
:103310009047029B09F580520292B2F81E2B92B29E
:10332000002A00F0B180029BB3F81A1B1A2301F0A7
:103330000F0103FB019101F5D9511231182210A898
:1033400000F0D6FD0AAB0DF1400C9E460393BCE89D
:103350000F00AEE80F009CE803008EE803009DF923
:103360003C305A1C00F09B809C427FF448AE039A8C
:10337000E1B24846FEF7A6FD029AB2F81A3B0133C5
:1033800003F01F03A2F81A3BB2F81E3B9BB2002BBE
:103390003FF435AEB2F81E3B013B9BB2A2F81E3B98
:1033A0002DE604A94846FFF747FCA7E602F4001102
:1033B00000295968ADF81420C2F303428DF81B2090
:1033C00009F5005214BF012000208DF8170092F873
:1033D00015098DF824408DF8250098688DF81F0098
:1033E00098684FEA10208DF81E0098684FEA104048
:1033F0008DF81D0098684FEA10608DF81C00D868A1
:103400008DF82300D8684FEA10208DF82200D86884
:1034100021F0604108BF890C000C04918DF8210057
:1034200004F60221DB6859F821101B0E8DF82030BC
:1034300019B104A802928847029AD2F808390BB150
:1034400004A8984709F580530293B3F81E3B9BB23A
:10345000002B7FF468AFD8F830200123A34013433A
:10346000C8F83030CBE52B68BBE509F5E6502146BE
:103470001030FFF791F8F16909F5EC5089B2183076
:10348000FFF7AEF82C6058E6D8F830100122A240C1
:103490000A43C8F830204FF000621A60AFE5039A83
:1034A000214666E72DE9F04F8C460F460646054655
:1034B00000F11008BCE80F008DB06C460FC49CE80A
:1034C000030084E80300DFF894A04FF0010955F8E9
:1034D000044F5CB19DF91420A36809FA02F1194266
:1034E00020D02368D3F800B0D34516D14545EED19E
:1034F00006F5005393F8003723B3182239460DEB35
:10350000020000F0F5FC18220DEB020106F1140098
:10351000FFF75EFB0DB0BDE8F08F9DF815306946F2
:103520002046D847237C002BE0D02368D3F800B096
:103530009DF81530D345D9D020464FF0FF3269466B
:10354000D847D3E73B7D8DF818303A4606A9304678
:10355000FFF72EFA0DB0BDE8F08F00BF5904000050
:1035600000F5005393F80137002B00F0DB802DE9C4
:10357000F04F0F4605460E460FCF89B002AC0FC480
:1035800097E8030084E80300DFF850C2DCF800305D
:103590009B0052D5DCF83430C3F3036A00244FEAB1
:1035A000CA0A0AF1080A22464FF063090CE05B0FD1
:1035B000022B3B6800F09A805B0F052B00F0DD804A
:1035C0000134E2B2924538D996F91430632B34D0E5
:1035D00004EB440805EBC80B0BF5F0573B6813F000
:1035E000604FEDD03B685B0F012B3B68DFD1F27978
:1035F000C3F300439A42E3D13B6813F4607FDFD00A
:103600004FEA480B002306E03A685FFA88F3C2F3FA
:10361000C2129342D4D203F101080BEB080303F565
:10362000F063029A55F823309A42EDD102A9284658
:103630008DF81C90FFF736FFE6E7684F00238DF802
:103640000E303C6814F000543FD0FDF771F83B6831
:1036500003F07F0301338342044633D9DFF87C91C2
:1036600042F2041742F2081896F91430A34220D00F
:1036700004EB440105EBC10202F5045ADAF800300C
:1036800013F0604F15D0DAF80030F079C3F3C0635F
:1036900098420ED1DAF800305B0F012BDAF80030D7
:1036A00041D05B0F022B12D0DAF800305B0F052BF4
:1036B0005BD0D9F80030013403F07F03E4B201336A
:1036C0009C42D1D309B0BDE8F08F3B68C6E7D15921
:1036D000029B8B42EDD352F808209342E9D802A90D
:1036E00028468DF81C40FFF7DDFEE2E7F279C3F3D0
:1036F00000439A427FF464AF41F604635BF8032011
:10370000029B9342FFF45CAF41F608625BF8022033
:1037100093423FF655AF02A928468DF81C90FFF75B
:10372000C1FE4DE7704713F4607FC2D04A0000230A
:1037300007E0DAF800105FFA8BF3C1F3C2118B4295
:10374000B7D203F1010B02EB0B0303F504630299FB
:1037500055F823309942ECD102A9284600928DF801
:103760001C40FFF79FFE009AE3E7029A2146284695
:10377000FEF7D4FF00289CD0B1E73B6813F4607FCC
:103780003FF41EAF0BF5F053143301270AE00BF59D
:10379000F05101370968C1F3C211FFB201318F4204
:1037A000BFF40EAF07EB480101F5F061186855F85A
:1037B00021E00299D3F800C008400EEA0C018842CB
:1037C000E5D102A9284601938DF80E2000928DF8CC
:1037D0001C90FFF767FEDDE90023D8E700400240B8
:1037E0002DE9F04FB94DBA4F81460FCD97B004ACDB
:1037F0000FC495E8030084E80300B96A386B3B689E
:10380000019013F400434FF000068B4603D13A6851
:10381000940000F1EB80AE4D019B2C6843F0010356
:10382000B3FA83F3C3F1200314F000545FFA83FA70
:1038300000F04F82FCF77CFF2B6803F07F0301331D
:103840008342044640F29E80824540F29B80671C82
:10385000DFF87C82FDB216E0062900F0AD80042975
:1038600000F03E81082900F0D781D8F8003003F03D
:103870007F030133AB42FCB240F28480A24505F1E4
:1038800001057FD9671CC4F12002A4F1200306FAC8
:1038900002F22BFA04F126FA03F311431943C90784
:1038A000E3D50199E14011431943C907DDD5894B9F
:1038B000E3181B011A68C2F303610229CCD102F498
:1038C00000115868002914BF4FF0010C4FF0000C94
:1038D00020F060408DF817C07FD1800C0490ADF8C7
:1038E0001420C2F303428DF81B2009F500528DF815
:1038F000244092F815298DF825209A688DF81F200C
:103900009A68120A8DF81E209A68120C8DF81D20F4
:103910009A68120E8DF81C20DA688DF82320DA6878
:10392000120A8DF82220DA68120C8DF82120DA684C
:1039300000294FEA12628DF8202014BF4FF08C62EC
:103940004FF080621A60D8F80830D8F83020012390
:10395000A3401343C8F83030049A21464846FEF786
:10396000DDFE002840F0538104A94846FFF7F8FD2A
:1039700004A8AFF3008004A8AFF3008004A8AFF35D
:10398000008072E7524E544D346A2B6884EA030279
:10399000524B13403BB109F58053B3F8D43C9BB272
:1039A0000F2B40F298814A4A136A23431362BFF3F4
:1039B0004F8F17B0BDE8F08F02F40011586800294E
:1039C00014BF4FF0010C4FF0000C20F060408DF858
:1039D00017C005D1800C049004E0049001217EE71B
:1039E0000490012101208DF8190078E78A067FF5FF
:1039F00012AF85067FF50FAFD7F88020ADF8142001
:103A0000C2F303418DF81B10D7F88410304C02F438
:103A10000010B04221F06041C2F300508DF8180050
:103A20004FEAD25212BF01203046890C8DF81700A0
:103A30008DF81620049108A80022D4F88810D140EF
:103A40000832202A00F8011DF7D1214809A9D0F831
:103A50008C20DA400833202B01F8012DF7D109F52D
:103A6000005393F815398DF8253063238DF82430F1
:103A70008368036B43F020030363019B5C0603D55B
:103A8000036B43F040030363019B180604D5104AFF
:103A9000136B43F08003136304A94846FFF760FDEE
:103AA00004A8AFF3008004A8AFF3008004A8AFF32C
:103AB000008004994846FEF7B7FD00283FF4ABAEFE
:103AC00004A94846FFF7EEFCA5E600BFA0C500002C
:103AD0000040024008240004E00EFF1FBFFF070063
:103AE00002F4001100295968ADF81420C2F3034212
:103AF0008DF81B2009F5005214BF012000208DF81D
:103B0000170092F815098DF824408DF82500986863
:103B10008DF81F0098684FEA10208DF81E009868F5
:103B20004FEA10408DF81D0098684FEA10608DF83C
:103B30001C00D8688DF82300D8684FEA10208DF853
:103B40002200D86821F0604108BF890C000C049164
:103B50008DF8210004F60221D86859F82110000ED2
:103B60008DF8200029B104A8039202938847039A94
:103B7000029BD2F808291AB104A802939047029B2D
:103B800009F580520292B2F81E2B92B2002A00F080
:103B9000B180029BB3F81A1B1A2301F00F0103FB3B
:103BA000019101F5D9511231182210A800F0A0F9A5
:103BB0000AAB0DF1400C9E460393BCE80F00AEE843
:103BC0000F009CE803008EE803009DF93C305A1C6E
:103BD00000F09B809C427FF448AE039AE1B24846D5
:103BE000FEF702FE029AB2F81A3B013303F01F03FC
:103BF000A2F81A3BB2F81E3B9BB2002B3FF435AE45
:103C0000B2F81E3B013B9BB2A2F81E3B2DE604A975
:103C10004846FFF747FCA7E602F40011002959685F
:103C2000ADF81420C2F303428DF81B2009F50052B1
:103C300014BF012000208DF8170092F815098DF8A7
:103C400024408DF8250098688DF81F0098684FEA89
:103C500010208DF81E0098684FEA10408DF81D0066
:103C600098684FEA10608DF81C00D8688DF8230022
:103C7000D8684FEA10208DF82200D86821F0604102
:103C800008BF890C000C04918DF8210004F6022174
:103C9000DB6859F821101B0E8DF8203019B104A8EB
:103CA00002928847029AD2F808390BB104A89847C3
:103CB00009F580530293B3F81E3B9BB2002B7FF4AF
:103CC00068AFD8F830200123A3401343C8F8303040
:103CD000CBE52B68BBE509F5E65021461030FEF731
:103CE0005BFCF16909F5EC5089B21830FEF778FCFD
:103CF0002C6058E6D8F830100122A2400A43C8F8D8
:103D000030204FF000621A60AFE5039A214666E763
:103D10002E482F4910B400F580522E4C0023838288
:103D200000F5005CC382206003832B4CA2F81A3B91
:103D3000A2F81C3BA2F81E3BA2F8D03CA2F8D23C51
:103D4000A2F8D43CA2F8983DA2F89A3DA2F89C3D76
:103D500001F58052046001F50050204C8CF80037CA
:103D6000CCF80C398CF80137CCF810398B828CF8F0
:103D70001439CB820C600B83A2F81A3BA2F81C3BCF
:103D8000A2F81E3BA2F8D03CA2F8D23CA2F8D43C48
:103D9000A2F8983DA2F89A3DA2F89C3D104A80F8FE
:103DA000003783B080F80137126801920D4C019AF8
:103DB000C0F80C39C0F8103980F814390A4B21606A
:103DC0001A6003B05DF8044B704700BFE80EFF1F98
:103DD0000038FF1F1861FF1F20C5000044C5000008
:103DE0002461FF1F1C61FF1F2061FF1F70B5012AA6
:103DF0008AB008BF0A22A1B34FF0210E02E05FFA99
:103E000086FE2946B1FBF2F502FB15145FFA84FC2D
:103E1000092C0CF1300498BF5FFA84FC0EF12804E1
:103E200088BF0CF1370C6C4488BF5FFA8CFC914260
:103E30000EF1FF3604F824CCE1D24BB10EF1FF3E77
:103E40005FFA8EFE0EF128036B442D2203F8242C1A
:103E5000036801A95B68CEF12202714498470AB059
:103E600070BD30228DF825204FF0210EE5E700BF10
:103E70000029BABF49422D2300230A22FFF7B6BF0B
:103E800000B5036883B040F60D22ADF804205B68EE
:103E9000022201A9984703B05DF804FB034B0228F6
:103EA00088BF034618461B685B6818475807FF1F02
:103EB0000EB400B582B003AA52F8041B019202F0BE
:103EC000D3FA02B05DF804EB03B0704732B903686F
:103ED00000B51B685DF804EBC9B21847FFF786BF51
:103EE00008B5FCF775FFFEF7EFF901F025F9FAE7E1
:103EF00001B441EA000313F003036FD1403A41D308
:103F000051F8043B40F8043B51F8043B40F8043BB3
:103F100051F8043B40F8043B51F8043B40F8043BA3
:103F200051F8043B40F8043B51F8043B40F8043B93
:103F300051F8043B40F8043B51F8043B40F8043B83
:103F400051F8043B40F8043B51F8043B40F8043B73
:103F500051F8043B40F8043B51F8043B40F8043B63
:103F600051F8043B40F8043B51F8043B40F8043B53
:103F700051F8043B40F8043B51F8043B40F8043B43
:103F8000403ABDD2303211D351F8043B40F8043BE3
:103F900051F8043B40F8043B51F8043B40F8043B23
:103FA00051F8043B40F8043B103AEDD20C3205D3F3
:103FB00051F8043B40F8043B043AF9D204320AD0E9
:103FC000D2071CBF11F8013B00F8013B03D30B786B
:103FD00003704B78437001BC704700BF0C2A4AD372
:103FE00010F0030311D0C3F10403D21ADB071CBF86
:103FF00011F8013B00F8013B07D311F8013B00F831
:10400000013B11F8013B00F8013B11F003033FF4C1
:1040100075AF30B4043AC91AC3F1040C51F8044B1B
:10402000022B19D0032B0BD0240A51F8043B1D0698
:1040300044EA050440F8044B1C46043AF4D216E066
:10404000240E51F8043B1D0244EA050440F8044BD9
:104050001C46043AF4D20AE0240C51F8043B1D0437
:1040600044EA050440F8044B1C46043AF4D20432F6
:10407000B1EB0C0130BC043AA0D3013A11F8013B7A
:1040800000F8013BF9D20B7803704B7843708B78C2
:10409000837001BC704700BF08B50F4C636B5803B9
:1040A0000DD4636B59050FD4636B1A0511D4636B80
:1040B000DB04F3D500F012F8636B5803F1D500F080
:1040C00059FA636B5905EFD500F008F8636B1A05D0
:1040D000EDD500F003F8EAE70080044008B5FFF7EB
:1040E000DBFF00BF014B10221A8070470020054003
:1040F000704700BF0B490A6848B108B5EC46131871
:10410000ACF50050834204D20B60104608BD104647
:10411000704702F055FB0C234FF0FF32036010464E
:1041200008BD00BF5407FF1F002070474FF0FF304D
:10413000704700BF4FF400534B600020704700BF32
:10414000012070474FF0FF30704700BFFEE7FFFFD0
:10415000074BDA78802A01D00020704705490648CD
:10416000486400225A70DA78802AFCD00120704717
:1041700000E007400080044000002822074BDA7866
:10418000012A01D00020704760225A70DA78802A14
:10419000FCD1034B034A5A640120704700E00740FA
:1041A000008004400000060201F1FF3C70B5654646
:1041B000002401E070460134B0FBF2FE02FB1E0356
:1041C000092B03F130068ABF3733F3B2DBB29042DA
:1041D00005F8013FEED2631C0022CA54C8187CB116
:1041E00062461CF8015F10F801ED8CF800E0A1EBCD
:1041F0000C030232013B521A23449A420570EFDB52
:10420000084670BD034B002210215A615A601860A5
:104210005961704700D00340704700BF4FF0E02C59
:104220002DE9F0414FF00068CCF804814FF0805840
:10423000CCF804814FF00058CCF804812F4A304963
:10424000304C314D314E4FF08048CCF8048128235A
:1042500000204EF6FF7E09274FF00048CCF804817D
:104260004860C1F808E0CB604B61CB614B62CB6228
:104270004B63CB634B64D3605361D3615362D362AE
:104280005363D36353640F606860C5F808E0EB6064
:104290006B612F606060C4F808E0E36063612760D1
:1042A0005060C2F808E0D36053611760F16A41F4CE
:1042B0000071F162716802F5803241F00071716045
:1042C00047F6FF740821506082B09460D360536158
:1042D000116000F0D5FFFFF79FFF0D4C236800939E
:1042E000009B132BFAD900F0FFFC23680193019B7C
:1042F000B3F5967FF9D302B0BDE8F08100900B4092
:104300000080034000800B40009003400080044088
:104310002461FF1F3F2818D810B4124B53F83020E7
:1043200092F8804234B1012381B982F800315DF8FE
:10433000044B704703EBC0035B681A6859B142F045
:1043400003025DF8044B1A607047704782F88030B2
:104350005DF8044B704722F002025DF8044B1A60CE
:10436000704700BFB8C500003F2806D8044B53F87B
:10437000303093F80002C0B270470020704700BF91
:10438000B8C500003F2820D81B4A02EBC003012912
:104390005B680FD004291DD052F83000002280F84D
:1043A000802299B1022922D003290DD14FF48172C4
:1043B0001A60704752F830004FF4A27280F88012F1
:1043C0001A601A6822F020021A6070474FF4807257
:1043D0001A60704752F830104FF4A272012081F831
:1043E00080021A601A6842F020021A60704740F298
:1043F00003121A60704700BFB8C50000431E032BAC
:1044000016D872B60B4951F8230078B130B40A4C73
:10441000B0F800C034F81320456841F82350A2EBEF
:104420000C0224F8132062B630BC704762B67047A5
:1044300000207047B861FF1F0862FF1F0138032882
:104440000BD872B6074B53F8203043B100205B689D
:104450000130002BFBD162B6704700207047184630
:10446000F9E700BFE061FF1F10B472B61A4A1B4C97
:10447000042312F8011B090743F0010C05D554F879
:10448000331069B154F83C10C9B10433142BF0D186
:1044900062B6134B00221A705DF8044B00F0AEBCFC
:1044A0000F4904EBC302083050600A780D4844F805
:1044B0003300013A0A7062B65DF8044B7047084A4F
:1044C000094904EBCC0308305860137844F83C10D9
:1044D000013B137062B6EFE738C800000000FF1F11
:1044E0001062FF1F88004000C8004000421E032ADF
:1044F0000ED81C4B400140F0100010B4034472B6BB
:10450000194CA05C03281DD8DFE800F0141603192D
:1045100070470520A05413F0080F088814BFC82264
:104520008822083142EA004259601A6062B65DF89A
:10453000044B70470320EDE708330220EAE7083315
:104540000420E7E7094B53F8220038B1084B53F831
:104550002200416043F8221062B6E8E743F82210D7
:10456000034BF7E70000FF1F0062FF1FE061FF1F22
:10457000F061FF1F2DE9F04FDFF80CA3DFF80CB35B
:1045800085B03DE0B04D9E0805EBC607013A79685D
:1045900013F00803D4B2A1F1080040F0B88055F838
:1045A00036204FEA124C120C21F808CC00F0A780FC
:1045B00021F8063C41F8043CA44B53F82420002A7F
:1045C00000F00182A24B53F82420506043F82400ED
:1045D000A04B33F81420944423F814C000F0EEFBF1
:1045E000002800F0E98117F0080F9B4B00F108004C
:1045F00018BF5B46786045F8363008238AF880306B
:104600009AF880305907DCB21BD5944B1B78ABB1BC
:1046100093490A7802F0FF032AB1013BDBB20B7029
:10462000002B00F046838F490A7802F0FF032AB17D
:10463000013BDBB20B70002B00F0EB8104238AF806
:10464000803014F0080200F0CC819AF89020D3B2A8
:10465000120997D1DFF8F0919B0809EBC30459F8D0
:1046600033006468C0F3830009287CD00FD8013878
:10467000012808D87C4A158842F22100854200F0C2
:10468000FB8149F833B001238AF89430B5E70D284F
:10469000F9D1D4E90007754D49F833B0724E744C26
:1046A000C9F8102083B240F2816CC9F818202A6042
:1046B00063454FF00102C6E90007227000F2FF8057
:1046C000B3F5D06F80F0CB82B3F5817F00F0268206
:1046D00040F2DE8040F2023293427BD107F07F0746
:1046E000042F00F20881020C40F00581614911F8A5
:1046F000273043F0020301F82730134670E017F02B
:10470000080F554B18BF5B4645F8363075E700F08B
:1047100075FB5949594A51F82430002B00F0578154
:10472000586841F82400115D03F1080078600329FE
:1047300005D8DFE801F0120F1502042111551A887F
:1047400017F0080F14BFC823882343EA024345F833
:10475000363052E702211155F1E703211155EEE7FA
:1047600005211155EBE7414D2A683AB34449404CC5
:104770000F88444894F800E00678402F3B4628BF55
:104780004023BEF1000F8EF0010E84F800E046F0E9
:10479000020486F00106067009EBC400426014BFF3
:1047A000C820882040EA03401A44FB1A9BB249F80B
:1047B00034000B80002B00F036812A602A4B1A88C7
:1047C000B2F5A06F7FF45FAF9A788AF89820002244
:1047D0005A7058E7B3F5A06F40F08D800022134661
:1047E000B6F806C02748944528BF94466746027825
:1047F000402F28BF402742F0020E3E0409EBCE08AE
:1048000046F0C806C8F8043049F83E6000263B442C
:104810002670BCEB070782F00106067040F011819C
:10482000BCF13F0F4FF0010509D946F002060270B6
:1048300009EBC60225705360882349F836300123FE
:104840008AF894301FE700BF0000FF1FB861FF1F08
:10485000C861FF1F0862FF1F880040000462FF1F3D
:104860000562FF1F3062FF1FD861FF1FAC61FF1F91
:10487000A961FF1FC0200740E061FF1F0062FF1F0A
:10488000AA61FF1FA861FF1F00200740C800400069
:10489000802B00F08B81822B2DD107F07F07042F16
:1048A00029D8A74A00231380A64B13F827309F0767
:1048B00040F1FC8101231370A14B022290E742F2E8
:1048C000210C6345BBD01DD942F2212293420DD168
:1048D000BFB2002F82D19C4B1A689C4B1A609C4B34
:1048E000C0F3074000221870134679E742F22132E4
:1048F00093423FF473AF0F238AF8C03001238AF844
:104900009430C0E6B3F5086F00F04A81B3F5106F3C
:10491000F1D1904BC0F307400425187059F8353099
:104920001A0606D40135142D0CD059F835301A0664
:10493000F8D509EBC50301355868083800F05EFA70
:10494000142DF2D1844A854B0292854A0192854EFC
:10495000854ADFF848820394009200251C4656F8E9
:10496000047B2FB138467F6800F048FA002FF9D158
:10497000009BD8F8007043F8045B46F8045C009391
:104980002FB138467F6800F039FA002FF9D1029B29
:1049900048F8045B43F8045B0293019B23F8025B35
:1049A00001932378023B032B00F20981DFE813F027
:1049B0003F0104013F0104016C4A45F836001378B9
:1049C0000133137019E643F82400674BFEE5115DCF
:1049D000022926D07FF611AE03291DD101231355DC
:1049E0000BE6E0076ED4210621D4A20708D5604B60
:1049F00093F888200221D2B283F8882083F88010AF
:104A0000E30603D55A4B102283F8802005B0BDE899
:104A1000F08F00F06DFB11E617F0080F14BF0323B1
:104A200002231355E9E53F2F98BF0022C5E6504BFE
:104A300080220D2183F8C01083F88020A207DFD5E3
:104A4000D5E746F002060270402F09EBC6003A4651
:104A500028BF402243601004134440F08800012125
:104A6000BA1A49F83600217055D02B60414B1A8094
:104A700001238AF8943006E692885AB93E4AE51D29
:104A800014F8011B02F8011FAC42F9D13B4A12682D
:104A9000862A3CD03A4C3B4825780278002D85F098
:104AA0000105257042F0020482F00102027009EB58
:104AB000C4024FF00000506014BFC822882249F899
:104AC0003420DEE52A4B2F482F49304C022583F84D
:104AD000945002702E480C602E4D48608C600D245E
:104AE000CD60FF200A618A6183F8C04001219F24C4
:104AF00083F8880083F8800083F8982083F88C007E
:104B000083F8844083F8941005B0BDE8F08F224A02
:104B10000F201070BEE73F2FA7D890E607F07F0761
:104B2000042F3FF6E8AE000C7FF4E5AE054A12F81C
:104B3000273023F0020302F82730002213464FE605
:104B4000B061FF1FC02007402461FF1F2C62FF1FC0
:104B50002862FF1F0462FF1FF061FF1F0062FF1F3A
:104B60000862FF1FB861FF1FC861FF1F1062FF1FAF
:104B700000200740AA61FF1F1F62FF1F2062FF1F66
:104B8000A961FF1FA861FF1F0000FF1F88004000F0
:104B90002861FF1F6861FF1F0562FF1FE061FF1FA3
:104BA000484B49491B780B700B4619E6464A0023CF
:104BB0001380454B022213E64FF001032370434B51
:104BC000B34204F101047FF4CAAE414E039CDFF806
:104BD0001481404F00233370042518F8013B3E4AEE
:104BE000AB541B0725D445F0020145F00302043500
:104BF0000023142D49F8313049F83230EDD1374FC8
:104C000025783A7842F0020009EBC00C85F00106E5
:104C1000CCF80430002D4DD1882382F0010226709B
:104C20003A7049F8303001238AF894302BE525702A
:104C3000C5E700F0C3F8002832D009EBC5030830FF
:104C4000586049F8357000F0B9F808B345F0010331
:104C500009EBC3020830506049F833B0C3E7204A7B
:104C60005368002B3FF447AE000CBFB204E0136959
:104C70000C32002B3FF43FAE11888142F7D15188AE
:104C8000B942F4D1000A03280CBF1A781289A7E5AB
:104C900033780133337045F0010349F83300A2E75C
:104CA000337849F8350001333370CCE7064B0222E4
:104CB00096E500BE2670C82382F001063E7049F8D2
:104CC0003030BCE50462FF1FB061FF1FC861FF1FE9
:104CD0001062FF1F88004000C0200740A861FF1F2E
:104CE000E4C7000038C8000010B500F02FFB002317
:104CF000234A194642F8331002EBC3000133142B48
:104D00004160F7D11F48204C436B43F48023436339
:104D1000D4F8003800F5283000F5807043F0407377
:104D2000C4F80038032480F84440184BA02480F8CD
:104D30004040C2F3072483F89C40C2F30744120E9C
:104D400083F8B0404FF0FF0C83F8B420012283F8C1
:104D500080C00F4C83F888C083F810C083F894207B
:104D600001704FF0E02183F884204FF0700C4FF475
:104D70000012102384F835C0C1F80421037210BD5D
:104D80000000FF1F0080044000D0004000200740CA
:104D900000E400E000F0ACB800F07CB800F056B8D9
:104DA00000F090B800F078B900F052B9084611460A
:104DB00000F0BAB8084600F03DB900BF72B60D4920
:104DC0000B68B3FA83F00B2810DC4FF00042C240AE
:104DD00023EA02030B6062B6074A00EBC000C10081
:104DE00002EBC000002353504360704762B60020BE
:104DF000704700BF6807FF1FD003FF1F0E4BC31A89
:104E0000B3F5587F10D20D4A127872B972B60C4AB7
:104E10000C49A2FB032308684FF000421B0922FA49
:104E200003F303430B6062B67047074A1278002A07
:104E3000ECD0FFF719BB00BFD003FF1F1062FF1FAC
:104E4000398EE3386807FF1F0462FF1F38B50F4C27
:104E5000206878B143880288C11801339A420D7ADC
:104E600002D94380284638BDFFF7C8FF00232360DE
:104E7000284638BD064B1B782BB10320FFF7BEFA3E
:104E800020600028E6D14FF0FF35EBE71462FF1FEA
:104E90000462FF1F10B5094C206818B143881844FC
:104EA000007A10BD064B1B782BB10320FFF7A6FA42
:104EB00020600028F2D14FF0FF3010BD1462FF1FB8
:104EC0000462FF1F084B094A1B6810B594881BB188
:104ED0001A885B88D31A1C440CB1204610BD00F020
:104EE0002BF9204610BD00BF1462FF1F0862FF1F90
:104EF0000B4B1B789BB110B50A4C206848B1FFF7EB
:104F00007DFF002303202360FFF778FA30B1FFF71D
:104F100075FF0320FFF772FA0028F8D110BD704723
:104F20000462FF1F1462FF1F2DE9F04FDFF8F890B5
:104F300083B0012289F80020019179B3374FDFF85F
:104F4000EC80019D364EDFF8E8A083463868A8B3B0
:104F5000B0F802E0CEF1400CAC4528BFAC460EEBF9
:104F60000C040022A4B23270A5EB0C05448000F1C1
:104F70000802BCF1000F0AD00EF1FF3E7244DC447F
:104F80001BF8014B02F8014FDC45F9D144883F2C56
:104F90000BD805228AF80020002DD7D101980023D4
:104FA00089F8003003B0BDE8F08F4022028001464E
:104FB0000420FFF79BFA00223A60EAE798F8002005
:104FC0001AB3184C08E0013C18D03278B2B900F09E
:104FD000B3F898F80020C2B10420FFF72FFA072891
:104FE000F1D84FF0010389F80030FFF7E7FE386091
:104FF0000028ADD1013C89F80000E6D101234FF033
:10500000FF30337003B0BDE8F08F00234FF0FF3066
:1050100089F8003003B0BDE8F08F00BF1C62FF1FAD
:105020001862FF1F214801001962FF1F0462FF1F61
:105030003062FF1F00B583B0034601210DF1070068
:105040008DF80730FFF770FF03B05DF804FB00BF79
:1050500038B50E4D0E4C28680123237028B14088C6
:105060000023C0F14000237038BD0A4B1B7813B9F0
:105070000020207038BD0420FFF7E0F90728F7D89A
:10508000FFF79CFE28600028E9D1F1E71C62FF1FB2
:105090001962FF1F0462FF1FF8B5114B1B788BB11B
:1050A000104E114D346801272F7064B10F4B00274B
:1050B0001F706388238021460420FFF717FA3760AA
:1050C00000232B70F8BDFFF779FE084B014620B195
:1050D00004201C70FFF70AFAF2E71F70F0E700BF28
:1050E0000462FF1F1C62FF1F1962FF1F3062FF1F57
:1050F00038B50E4B1B7853B90D4C216841B103F004
:10510000FF054B880B800420FFF7F0F9256038BDC0
:10511000FFF754FE014620B1BDE838400420FFF7F8
:10512000E5B9044B01221A7038BD00BF1962FF1F98
:105130001C62FF1F3062FF1F2DE9F843324E3378A7
:1051400063B1324F3A784AB90122D9073A7043D451
:105150009A0726D400225B073A7001D4BDE8F88391
:105160002B4B1A68002AF9D0EFF30582002AF5D1FB
:10517000EFF3108572B6186800283AD0254C2178D4
:10518000002936D142691A6001232370002A37D0E2
:10519000916105B962B60025836845779847257007
:1051A000DCE7DFF87C8098F80020002AD2D00025C8
:1051B000DFF870902B4659F82340236820461B697E
:1051C0000135984708B12369984798F80020EBB259
:1051D0009A42F0D83378BDE7FFF774FE68B90E4BFA
:1051E0001B780BB93378B3E7337803F0FE033370E1
:1051F000AEE7002DB2D162B6B0E700F0A5F8EEE759
:10520000064B1A60C5E700BF6C07FF1F3162FF1F26
:105210003462FF1F4062FF1FE0C700004462FF1FAF
:105220006062FF1F4862FF1F70B5EFF3108272B615
:105230000C4C206880B10C4E00254369236073B18B
:105240009D6102B962B6836845779847EFF3108293
:1052500072B620680028F0D102B962B670BD336022
:10526000EFE700BF3C62FF1F3862FF1FFFF7DCBFA4
:10527000024A136801331360704700BF2461FF1FA7
:105280002A4B2B4A6020E121187059701378294865
:10529000082B34D00A2B20D00C2B274B0CBF3521E8
:1052A0005D2112228160C2609960DA60234B21493E
:1052B0001B78214ACBB101230B621362204B1D499D
:1052C0001B781D4A012B13D9042B1BD884234B6256
:1052D00053621C4B01221A707047174B392113225D
:1052E0008160C2609960DA60E0E70B621362E5E713
:1052F00080234B625362134B01221A7070470E4B8E
:105300002121ECE7082B06D885234B6253620D4B15
:1053100001221A707047102B94BF862387234B629B
:105320005362084B01221A70704700BF00400740CB
:105330006D07FF1F00B0034000B00B406162FF1F0C
:105340006E07FF1F6262FF1F704700BF10B584B079
:1053500072B6FEF7FDFE174A174951607020802390
:105360001070137013781B06FCD5D468FEF706FF87
:1053700062B6124B9C423CBF04EB8404640020469E
:105380000F4C01A90A22FEF70FFF01A920460023B6
:1053900011F8012B01333AB10A2B20F8022FF7D173
:1053A0001623237004B010BD5B00DBB2237004B081
:1053B00010BD00BF00000240000007418096980029
:1053C000FC07FF1F81F0004102E000BF83F00043B3
:1053D00030B54FEA41044FEA430594EA050F08BF90
:1053E00090EA020F1FBF54EA000C55EA020C7FEA54
:1053F000645C7FEA655C00F0E2804FEA5454D4EBD1
:105400005555B8BF6D420CDD2C4480EA020281EA9A
:10541000030382EA000083EA010180EA020281EAD2
:105420000303362D88BF30BD11F0004F4FEA013124
:105430004FF4801C4CEA113102D0404261EB410133
:1054400013F0004F4FEA03334CEA133302D05242B9
:1054500063EB430394EA050F00F0A780A4F1010475
:10546000D5F1200E0DDB02FA0EFC22FA05F28018AF
:1054700041F1000103FA0EF2801843FA05F3594195
:105480000EE0A5F120050EF1200E012A03FA0EFC14
:1054900028BF4CF0020C43FA05F3C01851EBE3713E
:1054A00001F0004507D54FF0000EDCF1000C7EEB5B
:1054B00000006EEB0101B1F5801F1BD3B1F5001F99
:1054C0000CD349085FEA30004FEA3C0C04F10104B8
:1054D0004FEA445212F5800F80F09A80BCF1004FE1
:1054E00008BF5FEA500C50F1000041EB045141EA63
:1054F000050130BD5FEA4C0C404141EB0101013C2C
:1055000028BFB1F5801FE9D291F0000F04BF01461A
:105510000020B1FA81F308BF2033A3F10B03B3F1EC
:1055200020020CDA0C3208DD02F1140CC2F10C027C
:1055300001FA0CF021FA02F10CE002F11402D8BFDA
:10554000C2F1200C01FA02F120FA0CFCDCBF41EAA6
:105550000C019040E41AA2BF01EB0451294330BD75
:105560006FEA04041F3C1CDA0C340EDC04F1140452
:10557000C4F1200220FA04F001FA02F340EA030029
:1055800021FA04F345EA030130BDC4F10C04C4F16F
:10559000200220FA02F001FA04F340EA030029464F
:1055A00030BD21FA04F0294630BD94F0000F83F499
:1055B000801306BF81F480110134013D4EE77FEA7C
:1055C000645C18BF7FEA655C29D094EA050F08BFC8
:1055D00090EA020F05D054EA000C04BF19461046A9
:1055E00030BD91EA030F1EBF0021002030BD5FEAED
:1055F000545C05D14000494128BF41F0004130BD15
:1056000014F580043CBF01F5801130BD01F0004568
:1056100045F0FE4141F470014FF0000030BD7FEADB
:10562000645C1ABF194610467FEA655C1CBF0B46D6
:10563000024650EA013406BF52EA033591EA030FED
:1056400041F4002130BD00BF90F0000F04BF0021E5
:10565000704730B54FF4806404F132044FF0000518
:105660004FF0000150E700BF90F0000F04BF002191
:10567000704730B54FF4806404F1320410F00045F7
:1056800048BF40424FF000013EE700BF42004FEAF2
:10569000E2014FEA31014FEA02701FBF12F07F436F
:1056A00093F07F4F81F06051704732F07F4208BF26
:1056B000704793F07F4F04BF41F40021704730B52D
:1056C0004FF4607401F0004521F000411CE700BF79
:1056D00050EA010208BF704730B54FF000050AE0FC
:1056E00050EA010208BF704730B511F0004502D5FD
:1056F000404261EB41014FF4806404F132045FEAFF
:10570000915C3FF4D8AE4FF003025FEADC0C18BFA7
:1057100003325FEADC0C18BF033202EBDC02C2F199
:10572000200300FA03FC20FA02F001FA03FE40EA2B
:105730000E0021FA02F11444BDE600BF4FF0FF3C19
:1057400006E000BF4FF0010C02E000BF4FF0010C7B
:105750004DF804CD4FEA410C7FEA6C5C4FEA430CF4
:1057600018BF7FEA6C5C1BD001B050EA410C0CBF43
:1057700052EA430C91EA030F02BF90EA020F0020A5
:10578000704710F1000F91EA030F58BF994208BF0C
:1057900090422CBFD8176FEAE37040F001007047C9
:1057A0004FEA410C7FEA6C5C02D150EA013C07D120
:1057B0004FEA430C7FEA6C5CD6D152EA033CD3D06B
:1057C0005DF8040B704700BF8446104662468C4665
:1057D0001946634600E000BF01B5FFF7B7FF002898
:1057E00048BF10F1000F01BD4DF808EDFFF7F4FFC1
:1057F0000CBF012000205DF808FB00BF4DF808ED4C
:10580000FFF7EAFF34BF012000205DF808FB00BF6E
:105810004DF808EDFFF7E0FF94BF012000205DF890
:1058200008FB00BF4DF808EDFFF7CEFF94BF012045
:1058300000205DF808FB00BF4DF808EDFFF7C4FF3E
:1058400034BF012000205DF808FB00BF4FEA410C87
:105850007FEA6C5C02D150EA013C0AD14FEA430C6A
:105860007FEA6C5C02D152EA033C02D14FF00000A7
:1058700070474FF0010070472DE9F04F01F10B0622
:10588000162E83B0044624D8102900F2BA8000F006
:10589000A3FA102618220220B54F3A44A2F10801BB
:1058A00053688B4200F0BA805A68D96822F003022C
:1058B0001A449D68E9608D60516841F001012046FD
:1058C000516003F1080500F08DFA284603B0BDE8E9
:1058D000F08F36F0070600F19480B14200F291801B
:1058E00000F07AFAB6F5FC7FC0F09A81730A00F0F6
:1058F0008F80042B00F26F81B30903F1390003F1AB
:10590000380CC3009A4F3B44A3F108055B689D42E5
:1059100006D10CE0002980F22781DB689D4206D089
:105920005A6822F00302911B0F29F3DD60463D699E
:10593000DFF850C265457CD06A6822F00302931BF1
:105940000F2B00F37B81002BC7E904CC80F26C8124
:10595000B2F5007F80F01A81D308796801334FEAED
:10596000521E012202FA0EF20A4357F833E0C5F83C
:1059700008E007EBC3010839E9607A6047F8335063
:10598000CEF80C50831001219940914257D8114212
:1059900006D120F003004900114200F10400FAD0C2
:1059A00007EBC0094D468646D5F80C80454508D121
:1059B0001DE1002B80F22481D8F80C80454500F0D1
:1059C0001681D8F8042022F00302931B0F2BF0DD80
:1059D0002046D8E9025408EB060146F00106C8F853
:1059E0000460EC60A56043F00104C7E90411C1E95B
:1059F00002CC4C6048F8023000F0F4F908F10805D8
:105A000002E00C2323600025284603B0BDE8F08F98
:105A10004FF4007340204FF03F0C73E7D3689A4275
:105A200008BF02307FF440AF3D69DFF858C16545DB
:105A300082D17A688310012199409142A7D9BD682B
:105A40006B6823F003094E4503D8A9EB06030F2B1F
:105A50007ADCDFF834B1474BDBF800201B680132F9
:105A6000334405EB090A00F0338103F580530F330B
:105A700023F47F6828F00F084146204600F078FEA6
:105A8000411C024600F0F380824500F2EE803A4B62
:105A9000196841441960084600F04E81DBF8001097
:105AA000019301311BBFA2EB0A010918CBF80020BA
:105AB000196012F0070B00F01781CBF108010A44BE
:105AC000CBF5805190440831A1EB0801C1F30B0ADA
:105AD00051462046009200F04BFE421CDDE90023B7
