:1000000000000320D1010000C93200008532000049
:100010008532000085320000853200008532000004
:10002000853200008532000085320000C9320000B0
:10003000C932000085320000F5440000F944000098
:10004000C9320000C9320000C9320000C9320000C4
:10005000C9320000C9320000C9320000C9320000B4
:10006000C9320000C9320000C9320000C9320000A4
:10007000C9320000C9320000C9320000C932000094
:10008000C9320000C9320000C9320000C932000084
:10009000C9320000C9320000C9320000C932000074
:1000A000C9320000C9320000C9320000C932000064
:1000B000C9320000C9320000C9320000C932000054
:1000C000C9320000C9320000C9320000C932000044
:1000D000C9320000C9320000C9320000C932000034
:1000E000C9320000C9320000C9320000C932000024
:1000F000C9320000C9320000C9320000C932000014
:10010000C9320000C9320000C9320000C932000003
:10011000C9320000FD370000C9320000C9320000BA
:10012000C9320000C9320000C9320000C9320000E3
:10013000C9320000C9320000C9320000C9320000D3
:10014000C9320000C9320000C9320000C9320000C3
:10015000C9320000C9320000C9320000C9320000B3
:10016000C9320000C9320000C9320000C9320000A3
:10017000C9320000C9320000C9320000C932000093
:10018000C9320000C9320000C9320000C932000083
:10019000C9320000C9320000C9320000C932000073
:1001A000C9320000C9320000C9320000C932000063
:1001B000C9320000C9320000C9320000C932000053
:1001C000C9320000C9320000C9320000C932000043
:1001D0005F4B4CF2205210B5DA814DF62812DA81CD
:1001E00000BF00BF03F074F85A4B4FF030621A633F
:1001F000594A9A63594ADA634FF0E0234FF4700288
:10020000C3F8882D03F5E823554A1A60554B9A78B0
:10021000110703D59A7842F008029A70524B53485E
:10022000AA221A70524BDA1C121AC11E22F00302C3
:10023000994288BF00224F4902F050FF4E4B4F4871
:10024000DA1C121AC11E22F00302994288BF002252
:10025000002105F009FB4A494A484FF4E87202F0D0
:100260003DFF494B494A802103F8011B9342FBD1D2
:100270004FF0E023434AC3F8082D454B8A221A70F9
:10028000A3F5805324225A70A0221A709A799207FB
:10029000FCD59A79D406FCD43E4A937903F00C033A
:1002A000082BFAD1304B60225A70DA78802AFCD1C0
:1002B000384B01221A715D225A719A799006FCD549
:1002C0009A795106FCD5234A33495164002191643F
:1002D000202119702F498B7903F00C030C2BFAD1D4
:1002E0002E4B53602E4A136913F4807303D153616C
:1002F0004FF4A85313614FF0E0232A4A5A610022B9
:100300009A6107221A61284AC3F8202D62B603F0C9
:100310007BF8234B5B69DA0705D5244803F068F8BE
:10032000234B244ADA61244B1B785B0609D5204C09
:10033000204BE2699A4204D11C4803F059F800238B
:10034000E36102F0CBFF05F085FB02F0BFFEFEE7A4
:100350000020054000800440823F04000100002B83
:100360000300008500D0074000E007403007FF1F72
:10037000C80EFF1F38BD00008065FF1FC80EFF1F9D
:10038000000000000002FF1F00E400E064E400E061
:10039000005006400040064000000602C010070062
:1003A00000D003401FBF020000002020FE706166E5
:1003B00000E00340A5C3945A00F00740FFFFFFFF91
:1003C000FFFFFFFFFFFFFFFFFFFFFFFFFFFFFFFF3D
:1003D000FFFFFFFFFFFFFFFFFFFFFFFFFFFFFFFF2D
:1003E000FFFFFFFFFFFFFFFFFFFFFFFFFFFFFFFF1D
:1003F000FFFFFFFFFFFFFFFFFFFFFFFFFFFFFFFF0D
:10040000FFFFFFFFFFFFFFFFFFFFFFFFDEF9FFFF23
:100410000548064B1B1AD90F01EBA301491002D066
:10042000034B03B118477047C80EFF1FC80EFF1FCC
:100430000000000008B5054B1BB105490548AFF3A6
:100440000080BDE80840FFF7E3BF00BF00000000E8
:10045000C80EFF1F38BD000000207047034B18680E
:1004600010B103681B681847704700BF1861FF1F71
:10047000034B186810B103681B681847704700BF2A
:100480001C61FF1F0649074A08681378064982B0B5
:1004900083F00103019001981370086002B0704767
:1004A0002C61FF1F3307FF1F2061FF1F00F5005065
:1004B0002DE9F04196464A4AC0F8101914681368AD
:1004C000484DB5FBF1F043F0A043B5FBF0F590B01B
:1004D0004D1B04F0807413601368DE01FCD5052801
:1004E0004FF0000C22D93F4E63465A1C0233B0FB3A
:1004F000F3F7192F07FB03F30FD8B6FBF3F3CB1A6F
:10050000002BB8BF5B42AB4209DA1D4694460B2F65
:1005100006D9122F9CBF1D4694461346E5E7F6D038
:10052000052FFAD80CF10103B0FBF3F005381428BD
:1005300048D8B5F5967F45DC00EB40002A4FDFF840
:10054000A08000F140030DEB03050FCF6E460FC6F0
:100550000FCF0FC60FCF0FC697E80F0007C626F8BC
:10056000023B1B0C337015F83F3C15F83E2C15F878
:10057000401CDB04120402F4E02203F46013134372
:1005800001F00702134343F4800343EA0C6343F48E
:100590008043C8F80430D8F80430BEF1020F14BF0D
:1005A00023F0080343F00803C8F804303CB90C4AB0
:1005B000136823F0805313601368DB01FCD410B080
:1005C000BDE8F081002CFAD1054A136823F080536E
:1005D00013601368D901FCD410B0BDE8F08100BFEE
:1005E000004002400024F40058B6000000F500501E
:1005F0002DE9F04196464A4AC0F81019146813686C
:10060000484DB5FBF1F043F0A043B5FBF0F590B0D9
:100610004D1B04F0807413601368DE01FCD50528BF
:100620004FF0000C22D93F4E63465A1C0233B0FBF8
:10063000F3F7192F07FB03F30FD8B6FBF3F3CB1A2D
:10064000002BB8BF5B42AB4209DA1D4694460B2F24
:1006500006D9122F9CBF1D4694461346E5E7F6D0F7
:10066000052FFAD80CF10103B0FBF3F0053814287C
:1006700048D8B5F5967F45DC00EB40002A4FDFF8FF
:10068000A08000F140030DEB03050FCF6E460FC6AF
:100690000FCF0FC60FCF0FC697E80F0007C626F87B
:1006A000023B1B0C337015F83F3C15F83E2C15F837
:1006B000401CDB04120402F4E02203F46013134331
:1006C00001F00702134343F4800343EA0C6343F44D
:1006D0008043C8F80430D8F80430BEF1020F14BFCC
:1006E00023F0080343F00803C8F804303CB90C4A6F
:1006F000136823F0805313601368DB01FCD410B03F
:10070000BDE8F081002CFAD1054A136823F080532C
:1007100013601368D901FCD410B0BDE8F08100BFAC
:1007200000400A400024F40058B600000020704742
:100730000020704708207047002070470020704755
:100740000820704710490B68486B0A68496B02F033
:100750007F02C1F3036101320431B2EB410F10D3C8
:1007600003F07F03C0F30360053B0130A3EB4003BC
:10077000DBB2054A106800F07F000130C01AC0B239
:1007800070470023F5E700BF0040024010490B68A6
:10079000486B0A68496B02F07F02C1F303610132C2
:1007A0000431B2EB410F10D303F07F03C0F30360B9
:1007B000053B0130A3EB4003DBB2054A106800F0B3
:1007C0007F000130C01AC0B270470023F5E700BFB8
:1007D00000400A40624A2DE9F0411468136843F072
:1007E000A04304F0807413601368DD01FCD5116828
:1007F000DFF874C15B4F5A4E002321F000511160A5
:1008000093621268194603EB0C02DD191201AD0068
:10081000D16091605160116029603268013302F04B
:100820007F02DBB201329342EDD3B1643161336BAD
:100830003363336800284BD1DFF82C81484E494F91
:10084000054619E0336803F07F030133B0EB930FE3
:1008500034BF4FF080634FF08C631360736BC3F34E
:1008600000439B070B603368013503F07F03EDB253
:1008700001339D42284620D2336803F07F030133C1
:10088000E91905EB0802B0EB530F4FEA81014FEA7B
:100890000212D7D34FF00063136033689A0003D578
:1008A000FFF750FFA842DED801231F2D03FA05F3FE
:1008B0004CD8B26A1343B362D5E73CB9284A1368EF
:1008C00023F0805313601368DB01FCD4BDE8F08192
:1008D00043F000533360356815F000553ED0FFF704
:1008E00031FF336803F07F03013383420546E4D9C7
:1008F0001D4FDFF86C804FF000660DE0D8F828201F
:100900001343C8F82830D8F80030013503F07F03CE
:10091000EDB201339D42D0D2EB191B011E60D8F815
:100920000030990003D5FFF70DFF8542EBD301237B
:100930001F2D03FA05F3E1D9D8F824200123A5F1EE
:1009400020018B401343C8F82430DCE7726AA5F11C
:10095000200101238B401343736284E73368C7E7A8
:1009600000400240209200100824000470B528B313
:100970004028A8BF40200138C5B2134C236843F07B
:10098000A04323602368D901FCD500202668FFF727
:1009900021FF236B2363236823F07F0323602368F5
:1009A000B20043EA050323600AD4074A136823F020
:1009B000805313601368DB01FCD470BD0546DCE78F
:1009C0000120FFF707FFF0E700400240624A2DE9EF
:1009D000F0411468136843F0A04304F0807413607E
:1009E0001368DD01FCD51168DFF874C15B4F5A4E06
:1009F000002321F00051116093621268194603EB45
:100A00000C02DD191201AD00D160916051601160DE
:100A100029603268013302F07F02DBB20132934277
:100A2000EDD3B1643161336B3363336800284BD14C
:100A3000DFF82C81484E494F054619E0336803F032
:100A40007F030133B0EB930F34BF4FF080634FF05F
:100A50008C631360736BC3F300439B070B603368B5
:100A6000013503F07F03EDB201339D42284620D2C9
:100A7000336803F07F030133E91905EB0802B0EB9B
:100A8000530F4FEA81014FEA0212D7D34FF00063B0
:100A9000136033689A0003D5FFF778FEA842DED8CA
:100AA00001231F2D03FA05F34CD8B26A1343B36236
:100AB000D5E73CB9284A136823F0805313601368C4
:100AC000DB01FCD4BDE8F08143F0005333603568AE
:100AD00015F000553ED0FFF759FE336803F07F0351
:100AE000013383420546E4D91D4FDFF86C804FF097
:100AF00000660DE0D8F828201343C8F82830D8F84D
:100B00000030013503F07F03EDB201339D42D0D2B6
:100B1000EB191B011E60D8F80030990003D5FFF7D0
:100B200035FE8542EBD301231F2D03FA05F3E1D9EE
:100B3000D8F824200123A5F120018B401343C8F8E5
:100B40002430DCE7726AA5F1200101238B401343B6
:100B5000736284E73368C7E700400A4020920210BE
:100B600008A4000470B528B34028A8BF402001386D
:100B7000C5B2134C236843F0A04323602368D90116
:100B8000FCD500202668FFF721FF236B2363236831
:100B900023F07F0323602368B20043EA0503236048
:100BA0000AD4074A136823F0805313601368DB01EB
:100BB000FCD470BD0546DCE70120FFF707FFF0E736
:100BC00000400A4038B500F50055002361494360F4
:100BD0004B228360C3600361C5F80C2985F8153981
:100BE0000A785D4842F080020A70C26BA1F582214A
:100BF00042F01002C2634A68584822F400524A6028
:100C0000574A5849C2F86C110278002A40F0848093
:100C1000554B9A6CB2F5007F04BF00229A64534B87
:100C20004FF400721A63524B1A78002A00F0858044
:100C30004E4A516B00297FD000211970536BB3F5D8
:100C4000007F494B08BF51634FF40072DA64494A90
:100C5000136823F000431360136843F0A04313604C
:100C60001368DC01FCD55368424943F00803536024
:100C7000136843F0804313600B68D802FCD40B6800
:100C80003C4A43F000730B6013689901FCD4394C63
:100C90002368DA01FCD5236843F40033236023681A
:100CA00043F480332360236843F480532360236834
:100CB00043F400532360236843F4800323602368D4
:100CC00043F400232360236823F408432360636B09
:100CD00043F4E0236363236843F400132360236831
:100CE00043F0806323600020FFF774FD2368214AEE
:100CF00023F0805323601368DB01FCD4D5F80C2962
:100D0000530903F13823403301219B0002F01F02F5
:100D100001FA02F21A6038BD144A116B09B9017068
:100D200076E7116B0370B1F5007F08BF13630E4BBC
:100D30004FF400729A6476E719700B4BDA6CB2F5D7
:100D4000007F04BF0022DA64084B4FF400725A633C
:100D50007DE700BF00500640008004403107FF1FC0
:100D60000002FF1F5D04000000A00440009004404A
:100D70003007FF1F0040024038B5002300F5005542
:100D800043608360C3600361414A5E210123C5F86B
:100D90000C1985F8153913783E4943F08003137018
:100DA0000A6B3D4B42F010020A635A6801F5A041FC
:100DB0004FF4007022F400525A60086648661A68C0
:100DC0003649374822F000421A601A68C1F8B80163
:100DD00042F0A0421A601A68D201FCD559682E4A26
:100DE00041F008015960196841F0804119601368A9
:100DF000DC02FCD41368284943F0007313600B68CD
:100E00009801FCD4244C2368DA01FCD5236843F410
:100E100000332360236843F480332360236843F462
:100E200080532360236843F400532360236843F412
:100E300080032360236843F400232360236823F4A2
:100E400008432360636B43F4E0236363236843F444
:100E500000132360236843F0806323600020FFF7C2
:100E6000B5FD23680C4A23F0805323601368DB012F
:100E7000FCD4D5F80C29530903F138234033012160
:100E80009B0002F01F0201FA02F21A6038BD00BF97
:100E9000005006400080044000400A400002FF1F4E
:100EA0007104000038B50121062002F061FB3D4CC1
:100EB0000021062002F024FB01210D2002F058FB46
:100EC00021780D2002F01CFB0121152002F050FBBF
:100ED000354B1520197802F013FB0121142002F084
:100EE00047FB324B1420197802F00AFB022106203E
:100EF00002F03EFB0221072002F03AFB022108200B
:100F000002F036FB2A48FFF75DFE002229492848F7
:100F1000FFF7CCFA1020FFF729FD0120FFF75AFC5C
:100F2000254B1A6895000AD59A6A900607D49A6AE2
:100F300022F0FF029A629A6A42F020029A621F4BE4
:100F40001F48204DC3F80458FFF716FF19491C48E5
:100F50000022FFF74BFB1020FFF704FE0120FFF7F4
:100F600035FD194B1A6891000AD59A6A920607D482
:100F70009A6A22F0FF029A629A6A42F020029A620A
:100F8000124B134A13481860C2F804580821012272
:100F90004FF47A70D972DA7102F026FB00232370C5
:100FA00038BD00BF3307FF1F3407FF1F3207FF1F85
:100FB000E80EFF1F90D0030000400240E82EFF1F04
:100FC0000038FF1F8504000000400A403807FF1F5B
:100FD0000058FF1F3911F21910B52D2182B0274892
:100FE00003F0E6F8264802F04BF82648FFF7C4FE67
:100FF000002225492348FFF7F9FA1020FFF7B2FD38
:101000000120FFF7E3FC214B1A6894000AD59A6A85
:10101000900607D49A6A22F0FF029A629A6A42F016
:1010200020029A621A4B1B491B6801931A4B019AC2
:101030001A481B4C1A60C1F80448FFF7C3FD124957
:1010400016480022FFF732FA1020FFF78FFC01202C
:10105000FFF7C0FB134B1A6891000AD59A6A9206F3
:1010600007D49A6A22F0FF029A629A6A42F020023A
:101070009A620D4BC3F8044802B010BDA0B5000041
:101080005807FF1F0038FF1F90D0030000400A40A0
:101090002C61FF1F0058FF1F2061FF1FE80EFF1F7C
:1010A0008504000000400240E82EFF1F10B50B78B9
:1010B000632B044682B0104613D003F51C6304EB87
:1010C00083035B6813B101929847019804F50054BB
:1010D000D4F804381BB102B0BDE81040184702B084
:1010E00010BD04F50054D4F80437002BF0D0019261
:1010F00098470198ECE700BF1F2910B41B4823D87C
:10110000046B01238B4023430363194BD0790B44B9
:101110001B014FF000611960F8B11068117A20F0DE
:1011200060400905586041F4C001D0685DF8044B87
:1011300000BA9860106900BAD860D27A41EA0242D7
:1011400042F040621A607047C46AA1F1200C01238A
:1011500003FA0CF32343C362D7E714680548117AF6
:1011600000EA844058600905DFE700BF00400A40FC
:1011700008A400040000FC1F2DE9F04300F500570F
:101180008FB097F80037044613B9012387F800376A
:10119000238B9BB2002B4FD1D7F80C29530903F1B5
:1011A000382360339B0002F01F02012101FA02F292
:1011B00004F580561A60B6F81E3B9BB223B3B6F80E
:1011C0001A1B1A2301F00F0103FB014101F5D9514C
:1011D0001231182208A808AD01F080FF0FCD0DF1E3
:1011E000080CACE80F0095E803008CE803009DF9BB
:1011F0001C104B1C4AD0534B0B441B011B68C3F300
:101200000363082B00F08180D7F80C29530903F100
:10121000382340339B00012102F01F0201FA02F241
:101220001A60238BB6F81E0B9BB280B2002140EAF5
:1012300003300FB0BDE8F083A18A1A23C9B203FBC3
:101240000141182201F58E7108A801F047FFA38A19
:101250000133C3F30803A382238B9BB21BB1238BFF
:10126000013B9BB2238308AD0FCD02AE0FC695E8BC
:10127000030086E8030002AA9DF81C308DF80730B1
:101280000DF107012046FFF711FF85E7DFF8B88071
:10129000D8F8005015F0005550D0FFF777FAD8F87D
:1012A000003003F07F03013383420546ACD9DFF8F9
:1012B0009490DFF8948008E0D8F80030013503F00E
:1012C0007F03EDB201339D429ED205EB09031B0162
:1012D0001B68C3F30363082BEED102AA29462046FC
:1012E000FFF70AFFB6F81A3B013303F01F03A6F815
:1012F0001A3BB6F81E3B9BB2002BDDD0B6F81E3B66
:10130000013B9BB2A6F81E3BD6E702AAC9B2204613
:10131000FFF7F2FEB6F81A3B013303F01F03A6F8FD
:101320001A3BB6F81E3B9BB2002B3FF46DAFB6F8EC
:101330001E3B013B9BB2A6F81E3B65E7D8F8003088
:10134000B5E700BF08A4000400400A4010B50B78C0
:10135000632B044682B0104613D003F51C6304EBE4
:1013600083035B6813B101929847019804F5005418
:10137000D4F804381BB102B0BDE81040184702B0E1
:1013800010BD04F50054D4F80437002BF0D00192BE
:1013900098470198ECE700BF1F2910B41B4823D8D9
:1013A000046B01238B4023430363194BD0790B4417
:1013B0001B014FF000611960F8B11068117A20F03C
:1013C00060400905586041F4C001D0685DF8044BE5
:1013D00000BA9860106900BAD860D27A41EA024235
:1013E00042F040621A607047C46AA1F1200C0123E8
:1013F00003FA0CF32343C362D7E714680548117A54
:1014000000EA844058600905DFE700BF0040024061
:10141000082400040000FC1F2DE9F04300F50057EC
:101420008FB097F80037044613B9012387F80037C7
:10143000238B9BB2002B4FD1D7F80C29530903F112
:10144000382360339B0002F01F02012101FA02F2EF
:1014500004F580561A60B6F81E3B9BB223B3B6F86B
:101460001A1B1A2301F00F0103FB014101F5D951A9
:101470001231182208A808AD01F030FE0FCD0DF191
:10148000080CACE80F0095E803008CE803009DF918
:101490001C104B1C4AD0534B0B441B011B68C3F35D
:1014A0000363082B00F08180D7F80C29530903F15E
:1014B000382340339B00012102F01F0201FA02F29F
:1014C0001A60238BB6F81E0B9BB280B2002140EA53
:1014D00003300FB0BDE8F083A18A1A23C9B203FB21
:1014E0000141182201F58E7108A801F0F7FDA38AC9
:1014F0000133C3F30803A382238B9BB21BB1238B5D
:10150000013B9BB2238308AD0FCD02AE0FC695E819
:10151000030086E8030002AA9DF81C308DF807300E
:101520000DF107012046FFF711FF85E7DFF8B880CE
:10153000D8F8005015F0005550D0FFF703F9D8F84F
:10154000003003F07F03013383420546ACD9DFF856
:101550009490DFF8948008E0D8F80030013503F06B
:101560007F03EDB201339D429ED205EB09031B01BF
:101570001B68C3F30363082BEED102AA2946204659
:10158000FFF70AFFB6F81A3B013303F01F03A6F872
:101590001A3BB6F81E3B9BB2002BDDD0B6F81E3BC3
:1015A000013B9BB2A6F81E3BD6E702AAC9B2204671
:1015B000FFF7F2FEB6F81A3B013303F01F03A6F85B
:1015C0001A3BB6F81E3B9BB2002B3FF46DAFB6F84A
:1015D0001E3B013B9BB2A6F81E3B65E7D8F80030E6
:1015E000B5E700BF082400040040024043884FF0E4
:1015F0001A0C03F00F030CFB030310B50446002084
:101600009875638803F00F030CFB0343DA75608859
:1016100000F00F000CFB0040183004F0A9F86288BD
:1016200023889BB292B283F010039A4204D123889C
:10163000013303F01F0323806388013303F01F038A
:101640006380A3889BB20F2B03D8A38801339BB27E
:10165000A38010BDF0B58B7D4D4E8DB00D46044678
:10166000002B4BD1336813F0005C25D0FFF78EF8C8
:10167000336803F07F030133984284461ED2454904
:10168000434807E0036803F07F035FFA82FC0133FD
:101690009C4513D20CEB01031B010CF101021B68EA
:1016A000C3F30363082BEDD120462A466146FFF7BA
:1016B00023FD01200DB0F0BD3368E0E70FCDEC460F
:1016C000ACE80F0095E803008CE803004FF0FF0E34
:1016D0008DF814E06F460FCF06AE0FC69CE80300EE
:1016E00086E80300182204F5D8500DEB02011A30E9
:1016F000FFF77CFF4FF0FF300DB0F0BD306810F009
:10170000005042D0FFF742F8336803F07F03013303
:10171000834229D91F4E1E4F05E03B6803F07F032B
:101720000133984220D283191B01411C1A6812010F
:101730008446C8B2F1D51B68C3F30363082B1BD0E2
:101740000FCD6E460FC695E8030086E80300EE460F
:101750008DF814C0BEE80F0006AF0FC796E803006F
:10176000182287E80300BEE70B4B1B68C3F3036333
:10177000082B4FF0FF3CE3D120462A465FFA8CF15C
:10178000FFF7BAFC01200DB0F0BD3368C2E700BF1F
:1017900000400A4008A4000470400A40F0B58B7D68
:1017A0004D4E8DB00D460446002B4BD1336813F0DF
:1017B000005C25D0FEF7C6FF336803F07F030133DA
:1017C000984284461ED24549434807E0036803F027
:1017D0007F035FFA82FC01339C4513D20CEB0103BB
:1017E0001B010CF101021B68C3F30363082BEDD14D
:1017F00020462A466146FFF7CFFD01200DB0F0BD1F
:101800003368E0E70FCDEC46ACE80F0095E8030045
:101810008CE803004FF0FF0E8DF814E06F460FCFF9
:1018200006AE0FC69CE8030086E80300182204F504
:10183000D8500DEB02011A30FFF7D8FE4FF0FF3001
:101840000DB0F0BD306810F0005042D0FEF77AFFC6
:10185000336803F07F030133834229D91F4E1E4FA3
:1018600005E03B6803F07F030133984220D28319DF
:101870001B01411C1A6812018446C8B2F1D51B68CD
:10188000C3F30363082B1BD00FCD6E460FC695E83C
:10189000030086E80300EE468DF814C0BEE80F0092
:1018A00006AF0FC796E80300182287E80300BEE7DB
:1018B0000B4B1B68C3F30363082B4FF0FF3CE3D1D2
:1018C00020462A465FFA8CF1FFF766FD01200DB035
:1018D000F0BD3368C2E700BF0040024008240004A6
:1018E000704002402DE9F041082088B001F032FE3E
:1018F000444F454C454D464E031E18BF012306205C
:101900003B7001F027FE031E18BF01230720237040
:1019100001F020FE003818BF012021782870152022
:1019200001F0EEFD2978142001F0EAFD394B0D207D
:10193000197801F0E5FD3848FFF71EFC3748FFF73E
:101940006BFD336836490393039B0A689B1A632B2C
:101950000BD83368334A0593059B11685B1AB3F5BE
:101960007A7F3CD208B0BDE8F08133680493049BD1
:101970000B60336897F80080029327782A4C029B0B
:101980002D782361FF23E3732146244884F80C80DB
:101990006773A573FFF702FF21461F48FFF75AFE42
:1019A0000095206801904346204921483A4601F0BD
:1019B0007FFBE37A7BB10025DFF87C801C4F2B4650
:1019C000234441461A7B384601F072FB0135E27A26
:1019D000EBB29A42F4D8164801F052FBB9E73368EB
:1019E000069306981349336807930C68079B1060A9
:1019F00041F287311B1B8B42B4D908B0BDE8F041DE
:101A0000FFF7EABA3507FF1F5007FF1F5107FF1FF7
:101A10002C61FF1F3307FF1F0038FF1FE80EFF1F59
:101A20002861FF1F2461FF1F3807FF1FD0B500008A
:101A30005807FF1F2061FF1F08B6000000F5805304
:101A4000D3F8003EDB006BD5384B2DE9F04F5F6BD0
:101A5000C7F30367FF00002241F6146B083741F615
:101A6000046941F6086A07E01D686D0F052D34D042
:101A70000132D3B29F4255D902EB420E00EBCE04A5
:101A800004F5F0531D686D0F012D0ED01D686D0F0C
:101A9000022DE9D154F809308B42E9D854F80A30C4
:101AA0008B42E5D30120BDE8F08F1C6814F4607F01
:101AB000DED04FEA4E0E002404E01D68C5F3C215C7
:101AC000AC42D5D201340EEB040505F5F065E4B265
:101AD00050F825508D42F0D1E4E71D6815F4607F81
:101AE000C6D05C444FEA4E0E4FF0010C05E01D6875
:101AF000C5F3C2150135AC45BAD20EEB0C0505F5A0
:101B0000F065266850F82550D4F800800E4005EAAC
:101B100008050CF1010CAE425FFA8CFCE7D1C1E77D
:101B2000012070470020BDE8F08F00BF00400A4050
:101B300001EB410170B500EBC10505F5045EDEF86F
:101B40000030DB0028D5DEF800305B0F012B0BD016
:101B5000DEF800305B0F022B42D0DEF800305B0F66
:101B6000052B1BD0002070BDDEF8004014F4607F10
:101B7000F8D000234D0005E0DEF80010C1F3C21CD0
:101B80006345EFD2013305EB030C0CF5046CDBB2BB
:101B900050F82C409442EFD1012070BDDEF8004097
:101BA00014F4607FDED005F5045514354900012397
:101BB00007E0DEF80040C4F3C21C0CF1010C6345E1
:101BC000D0D22C6804EA020CCC1804F5046401336A
:101BD00050F824402E683440A445DBB2E9D1DBE75D
:101BE00042F20413EB589342BCD842F20813E8586F
:101BF000904234BF0020012070BD00BF83889BB29B
:101C00000F2B03D8838801339BB283804288B0F8BE
:101C100002C0038802F00F029BB202321FFA8CFC52
:101C200083F010039C4540F8221004D1038801334F
:101C300003F01F0303804388013303F01F03438035
:101C4000704700BF83889BB20F2B03D88388013372
:101C50009BB283804288B0F802C0038802F00F0272
:101C60009BB200EB42021FFA8CFC83F010039C45F0
:101C7000D18004D10388013303F01F03038043881C
:101C8000013303F01F034380704700BF00F580530A
:101C9000D3F8003EDB006BD5384B2DE9F04F5F6B7E
:101CA000C7F30367FF00002241F6146B083741F6C3
:101CB000046941F6086A07E01D686D0F052D34D0F0
:101CC0000132D3B29F4255D902EB420E00EBCE0453
:101CD00004F5F0531D686D0F012D0ED01D686D0FBA
:101CE000022DE9D154F809308B42E9D854F80A3072
:101CF0008B42E5D30120BDE8F08F1C6814F4607FAF
:101D0000DED04FEA4E0E002404E01D68C5F3C21574
:101D1000AC42D5D201340EEB040505F5F065E4B212
:101D200050F825508D42F0D1E4E71D6815F4607F2E
:101D3000C6D05C444FEA4E0E4FF0010C05E01D6822
:101D4000C5F3C2150135AC45BAD20EEB0C0505F54D
:101D5000F065266850F82550D4F800800E4005EA5A
:101D600008050CF1010CAE425FFA8CFCE7D1C1E72B
:101D7000012070470020BDE8F08F00BF0040024006
:101D800001EB410170B500EBC10505F5045EDEF81D
:101D90000030DB0028D5DEF800305B0F012B0BD0C4
:101DA000DEF800305B0F022B42D0DEF800305B0F14
:101DB000052B1BD0002070BDDEF8004014F4607FBE
:101DC000F8D000234D0005E0DEF80010C1F3C21C7E
:101DD0006345EFD2013305EB030C0CF5046CDBB269
:101DE00050F82C409442EFD1012070BDDEF8004045
:101DF00014F4607FDED005F5045514354900012345
:101E000007E0DEF80040C4F3C21C0CF1010C63458E
:101E1000D0D22C6804EA020CCC1804F50464013317
:101E200050F824402E683440A445DBB2E9D1DBE70A
:101E300042F20413EB589342BCD842F20813E8581C
:101E4000904234BF0020012070BD00BF43884FF096
:101E50001A0CDBB20CFB030310B50446002083F818
:101E600006016388DBB20CFB034383F8072160881B
:101E7000C0B20CFB004000F5847003F079FC62886E
:101E800023889BB292B283F480739A4204D1238850
:101E90000133C3F30803238063880133C3F30803CA
:101EA0006380A3889BB2FF2B03D8A38801339BB226
:101EB000A38010BD2DE9F04F8C460F46064605461F
:101EC00000F11008BCE80F008DB06C460FC49CE810
:101ED000030084E80300DFF894A04FF0010955F8EF
:101EE000044F5CB19DF91420A36809FA02F119426C
:101EF00020D02368D3F800B0D34516D14545EED1A4
:101F000006F5005393F8003723B3182239460DEB3A
:101F1000020001F0E3F818220DEB020106F11400B3
:101F2000FFF794FF0DB0BDE8F08F9DF815306946BE
:101F30002046D847237C002BE0D02368D3F800B09C
:101F40009DF81530D345D9D020464FF0FF32694671
:101F5000D847D3E73B7D8DF818303A4606A930467E
:101F6000FFF7A4F80DB0BDE8F08F00BF59040000E2
:101F700000F5005393F80137002B00F0DB802DE9CA
:101F8000F04F0F4605460E460FCF89B002AC0FC486
:101F900097E8030084E80300DFF850C2DCF8003063
:101FA0009B0052D5DCF83430C3F3036A00244FEAB7
:101FB000CA0A0AF1080A22464FF063090CE05B0FD7
:101FC000022B3B6800F09A805B0F052B00F0DD8050
:101FD0000134E2B2924538D996F91430632B34D0EB
:101FE00004EB440805EBC80B0BF5F0573B6813F006
:101FF000604FEDD03B685B0F012B3B68DFD1F2797E
:10200000C3F300439A42E3D13B6813F4607FDFD00F
:102010004FEA480B002306E03A685FFA88F3C2F300
:10202000C2129342D4D203F101080BEB080303F56B
:10203000F063029A55F823309A42EDD102A928465E
:102040008DF81C90FFF736FFE6E7684F00238DF808
:102050000E303C6814F000543FD0FEF797FB3B680D
:1020600003F07F0301338342044633D9DFF87C91C8
:1020700042F2041742F2081896F91430A34220D015
:1020800004EB440105EBC10202F5045ADAF8003012
:1020900013F0604F15D0DAF80030F079C3F3C06365
:1020A00098420ED1DAF800305B0F012BDAF80030DD
:1020B00041D05B0F022B12D0DAF800305B0F052BFA
:1020C0005BD0D9F80030013403F07F03E4B2013370
:1020D0009C42D1D309B0BDE8F08F3B68C6E7D15927
:1020E000029B8B42EDD352F808209342E9D802A913
:1020F00028468DF81C40FFF7DDFEE2E7F279C3F3D6
:1021000000439A427FF464AF41F604635BF8032016
:10211000029B9342FFF45CAF41F608625BF8022039
:1021200093423FF655AF02A928468DF81C90FFF761
:10213000C1FE4DE7704713F4607FC2D04A00002310
:1021400007E0DAF800105FFA8BF3C1F3C2118B429B
:10215000B7D203F1010B02EB0B0303F50463029901
:1021600055F823309942ECD102A9284600928DF807
:102170001C40FFF79FFE009AE3E7029A214628469B
:10218000FFF7D6FC00289CD0B1E73B6813F4607FD2
:102190003FF41EAF0BF5F053143301270AE00BF5A3
:1021A000F05101370968C1F3C211FFB201318F420A
:1021B000BFF40EAF07EB480101F5F061186855F860
:1021C00021E00299D3F800C008400EEA0C018842D1
:1021D000E5D102A9284601938DF80E2000928DF8D2
:1021E0001C90FFF767FEDDE90023D8E700400A40B6
:1021F0002DE9F04FB94DBA4F81460FCD97B004ACE1
:102200000FC495E8030084E80300B96A386B3B68A3
:10221000019013F400434FF000068B4603D13A6857
:10222000940000F1EB80AE4D019B2C6843F001035C
:10223000B3FA83F3C3F1200314F000545FFA83FA76
:1022400000F04F82FEF7A2FA2B6803F07F03013300
:102250008342044640F29E80824540F29B80671C88
:10226000DFF87C82FDB216E0062900F0AD8004297B
:1022700000F03E81082900F0D781D8F8003003F043
:102280007F030133AB42FCB240F28480A24505F1EA
:1022900001057FD9671CC4F12002A4F1200306FACE
:1022A00002F22BFA04F126FA03F311431943C9078A
:1022B000E3D50199E14011431943C907DDD5894BA5
:1022C000E3181B011A68C2F303610229CCD102F49E
:1022D00000115868002914BF4FF0010C4FF0000C9A
:1022E00020F060408DF817C07FD1800C0490ADF8CD
:1022F0001420C2F303428DF81B2009F500528DF81B
:10230000244092F815298DF825209A688DF81F2011
:102310009A68120A8DF81E209A68120C8DF81D20FA
:102320009A68120E8DF81C20DA688DF82320DA687E
:10233000120A8DF82220DA68120C8DF82120DA6852
:1023400000294FEA12628DF8202014BF4FF08C62F2
:102350004FF080621A60D8F80830D8F83020012396
:10236000A3401343C8F83030049A21464846FFF78B
:10237000DFFB002840F0538104A94846FFF7F8FD31
:1023800004A8AFF3008004A8AFF3008004A8AFF363
:10239000008072E7524E544D346A2B6884EA03027F
:1023A000524B13403BB109F58053B3F8D43C9BB278
:1023B0000F2B40F298814A4A136A23431362BFF3FA
:1023C0004F8F17B0BDE8F08F02F400115868002954
:1023D00014BF4FF0010C4FF0000C20F060408DF85E
:1023E00017C005D1800C049004E0049001217EE721
:1023F0000490012101208DF8190078E78A067FF505
:1024000012AF85067FF50FAFD7F88020ADF8142006
:10241000C2F303418DF81B10D7F88410304C02F43E
:102420000010B04221F06041C2F300508DF8180056
:102430004FEAD25212BF01203046890C8DF81700A6
:102440008DF81620049108A80022D4F88810D140F5
:102450000832202A00F8011DF7D1214809A9D0F837
:102460008C20DA400833202B01F8012DF7D109F533
:10247000005393F815398DF8253063238DF82430F7
:102480008368036B43F020030363019B5C0603D561
:10249000036B43F040030363019B180604D5104A05
:1024A000136B43F08003136304A94846FFF760FDF4
:1024B00004A8AFF3008004A8AFF3008004A8AFF332
:1024C000008004994846FFF7B9FA00283FF4ABAE04
:1024D00004A94846FFF7EEFCA5E600BF98B6000049
:1024E00000400A4008A40004E40EFF1FBFFF0700DD
:1024F00002F4001100295968ADF81420C2F3034218
:102500008DF81B2009F5005214BF012000208DF822
:10251000170092F815098DF824408DF82500986869
:102520008DF81F0098684FEA10208DF81E009868FB
:102530004FEA10408DF81D0098684FEA10608DF842
:102540001C00D8688DF82300D8684FEA10208DF859
:102550002200D86821F0604108BF890C000C04916A
:102560008DF8210004F60221D86859F82110000ED8
:102570008DF8200029B104A8039202938847039A9A
:10258000029BD2F808291AB104A802939047029B33
:1025900009F580520292B2F81E2B92B2002A00F086
:1025A000B180029BB3F81A1B1A2301F00F0103FB41
:1025B000019101F5D9511231182210A800F08EFDB9
:1025C0000AAB0DF1400C9E460393BCE80F00AEE849
:1025D0000F009CE803008EE803009DF93C305A1C74
:1025E00000F09B809C427FF448AE039AE1B24846DB
:1025F000FEF782FD029AB2F81A3B013303F01F0383
:10260000A2F81A3BB2F81E3B9BB2002B3FF435AE4A
:10261000B2F81E3B013B9BB2A2F81E3B2DE604A97B
:102620004846FFF747FCA7E602F400110029596865
:10263000ADF81420C2F303428DF81B2009F50052B7
:1026400014BF012000208DF8170092F815098DF8AD
:1026500024408DF8250098688DF81F0098684FEA8F
:1026600010208DF81E0098684FEA10408DF81D006C
:1026700098684FEA10608DF81C00D8688DF8230028
:10268000D8684FEA10208DF82200D86821F0604108
:1026900008BF890C000C04918DF8210004F602217A
:1026A000DB6859F821101B0E8DF8203019B104A8F1
:1026B00002928847029AD2F808390BB104A89847C9
:1026C00009F580530293B3F81E3B9BB2002B7FF4B5
:1026D00068AFD8F830200123A3401343C8F8303046
:1026E000CBE52B68BBE509F5E65021461030FFF736
:1026F00085FAF16909F5EC5089B21830FFF7A2FAB2
:102700002C6058E6D8F830100122A2400A43C8F8DD
:1027100030204FF000621A60AFE5039A214666E769
:102720002DE9F04F8C460F460646054600F110088D
:10273000BCE80F008DB06C460FC49CE8030084E831
:102740000300DFF894A04FF0010955F8044F5CB185
:102750009DF91420A36809FA02F1194220D02368D8
:10276000D3F800B0D34516D14545EED106F5005358
:1027700093F8003723B3182239460DEB020000F01E
:10278000ADFC18220DEB020106F11400FFF75EFB11
:102790000DB0BDE8F08F9DF8153069462046D8474A
:1027A000237C002BE0D02368D3F800B09DF81530CF
:1027B000D345D9D020464FF0FF326946D847D3E7FA
:1027C0003B7D8DF818303A4606A93046FEF7BEFD2F
:1027D0000DB0BDE8F08F00BF5904000000F50053B4
:1027E00093F80137002B00F0DB802DE9F04F0F4606
:1027F00005460E460FCF89B002AC0FC497E8030020
:1028000084E80300DFF850C2DCF800309B0052D5AA
:10281000DCF83430C3F3036A00244FEACA0A0AF131
:10282000080A22464FF063090CE05B0F022B3B685D
:1028300000F09A805B0F052B00F0DD800134E2B2DE
:10284000924538D996F91430632B34D004EB440800
:1028500005EBC80B0BF5F0573B6813F0604FEDD05C
:102860003B685B0F012B3B68DFD1F279C3F3004378
:102870009A42E3D13B6813F4607FDFD04FEA480B04
:10288000002306E03A685FFA88F3C2F3C21293426B
:10289000D4D203F101080BEB080303F5F063029AAD
:1028A00055F823309A42EDD102A928468DF81C90A4
:1028B000FFF736FFE6E7684F00238DF80E303C68DF
:1028C00014F000543FD0FDF73DFF3B6803F07F0359
:1028D00001338342044633D9DFF87C9142F2041776
:1028E00042F2081896F91430A34220D004EB4401B8
:1028F00005EBC10202F5045ADAF8003013F0604F1C
:1029000015D0DAF80030F079C3F3C06398420ED1E5
:10291000DAF800305B0F012BDAF8003041D05B0FA2
:10292000022B12D0DAF800305B0F052B5BD0D9F800
:102930000030013403F07F03E4B201339C42D1D371
:1029400009B0BDE8F08F3B68C6E7D159029B8B42C6
:10295000EDD352F808209342E9D802A928468DF811
:102960001C40FFF7DDFEE2E7F279C3F300439A4231
:102970007FF464AF41F604635BF80320029B93424B
:10298000FFF45CAF41F608625BF8022093423FF629
:1029900055AF02A928468DF81C90FFF7C1FE4DE700
:1029A000704713F4607FC2D04A00002307E0DAF8D2
:1029B00000105FFA8BF3C1F3C2118B42B7D203F15F
:1029C000010B02EB0B0303F50463029955F8233066
:1029D0009942ECD102A9284600928DF81C40FFF7DD
:1029E0009FFE009AE3E7029A21462846FFF7C8F9BE
:1029F00000289CD0B1E73B6813F4607F3FF41EAF22
:102A00000BF5F053143301270AE00BF5F0510137B1
:102A10000968C1F3C211FFB201318F42BFF40EAF9A
:102A200007EB480101F5F061186855F821E00299BB
:102A3000D3F800C008400EEA0C018842E5D102A993
:102A4000284601938DF80E2000928DF81C90FFF718
:102A500067FEDDE90023D8E7004002402DE9F04F92
:102A6000B94DBA4F81460FCD97B004AC0FC495E86D
:102A7000030084E80300B96A386B3B68019013F4E3
:102A800000434FF000068B4603D13A68940000F1F2
:102A9000EB80AE4D019B2C6843F00103B3FA83F346
:102AA000C3F1200314F000545FFA83FA00F04F8260
:102AB000FDF748FE2B6803F07F0301338342044691
:102AC00040F29E80824540F29B80671CDFF87C824A
:102AD000FDB216E0062900F0AD80042900F03E8129
:102AE000082900F0D781D8F8003003F07F030133C4
:102AF000AB42FCB240F28480A24505F101057FD9CA
:102B0000671CC4F12002A4F1200306FA02F22BFA9A
:102B100004F126FA03F311431943C907E3D50199D8
:102B2000E14011431943C907DDD5894BE3181B0167
:102B30001A68C2F303610229CCD102F4001158686B
:102B4000002914BF4FF0010C4FF0000C20F0604042
:102B50008DF817C07FD1800C0490ADF81420C2F31B
:102B600003428DF81B2009F500528DF8244092F89D
:102B700015298DF825209A688DF81F209A68120A69
:102B80008DF81E209A68120C8DF81D209A68120E7E
:102B90008DF81C20DA688DF82320DA68120A8DF887
:102BA0002220DA68120C8DF82120DA6800294FEA19
:102BB00012628DF8202014BF4FF08C624FF08062BB
:102BC0001A60D8F80830D8F830200123A340134306
:102BD000C8F83030049A21464846FFF7D1F800285B
:102BE00040F0538104A94846FFF7F8FD04A8AFF36D
:102BF000008004A8AFF3008004A8AFF3008072E760
:102C0000524E544D346A2B6884EA0302524B1340EF
:102C10003BB109F58053B3F8D43C9BB20F2B40F283
:102C200098814A4A136A23431362BFF34F8F17B048
:102C3000BDE8F08F02F400115868002914BF4FF06E
:102C4000010C4FF0000C20F060408DF817C005D14A
:102C5000800C049004E0049001217EE7049001219F
:102C600001208DF8190078E78A067FF512AF8506F6
:102C70007FF50FAFD7F88020ADF81420C2F30341E1
:102C80008DF81B10D7F88410304C02F40010B042BD
:102C900021F06041C2F300508DF818004FEAD25283
:102CA00012BF01203046890C8DF817008DF81620D0
:102CB000049108A80022D4F88810D1400832202AB4
:102CC00000F8011DF7D1214809A9D0F88C20DA407D
:102CD0000833202B01F8012DF7D109F5005393F8A3
:102CE00015398DF8253063238DF824308368036B04
:102CF00043F020030363019B5C0603D5036B43F0A1
:102D000040030363019B180604D5104A136B43F07C
:102D10008003136304A94846FFF760FD04A8AFF3DE
:102D2000008004A8AFF3008004A8AFF300800499EA
:102D30004846FEF7ABFF00283FF4ABAE04A9484677
:102D4000FFF7EEFCA5E600BF98B600000040024089
:102D500008240004E00EFF1FBFFF070002F400116B
:102D600000295968ADF81420C2F303428DF81B20E6
:102D700009F5005214BF012000208DF8170092F8C9
:102D800015098DF824408DF8250098688DF81F00EE
:102D900098684FEA10208DF81E0098684FEA10409E
:102DA0008DF81D0098684FEA10608DF81C00D868F7
:102DB0008DF82300D8684FEA10208DF82200D868DB
:102DC00021F0604108BF890C000C04918DF82100AE
:102DD00004F60221D86859F82110000E8DF8200061
:102DE00029B104A8039202938847039A029BD2F860
:102DF00008291AB104A802939047029B09F5805252
:102E00000292B2F81E2B92B2002A00F0B180029B0F
:102E1000B3F81A1B1A2301F00F0103FB019101F50E
:102E2000D9511231182210A800F058F90AAB0DF14F
:102E3000400C9E460393BCE80F00AEE80F009CE8F0
:102E400003008EE803009DF93C305A1C00F09B8083
:102E50009C427FF448AE039AE1B24846FEF79CFAE2
:102E6000029AB2F81A3B013303F01F03A2F81A3B8F
:102E7000B2F81E3B9BB2002B3FF435AEB2F81E3BBE
:102E8000013B9BB2A2F81E3B2DE604A94846FFF782
:102E900047FCA7E602F4001100295968ADF8142098
:102EA000C2F303428DF81B2009F5005214BF012024
:102EB00000208DF8170092F815098DF824408DF840
:102EC000250098688DF81F0098684FEA10208DF84B
:102ED0001E0098684FEA10408DF81D0098684FEA70
:102EE00010608DF81C00D8688DF82300D8684FEA70
:102EF00010208DF82200D86821F0604108BF890CAD
:102F0000000C04918DF8210004F60221DB6859F8C9
:102F100021101B0E8DF8203019B104A802928847A9
:102F2000029AD2F808390BB104A8984709F58053E2
:102F30000293B3F81E3B9BB2002B7FF468AFD8F826
:102F400030200123A3401343C8F83030CBE52B6871
:102F5000BBE509F5E65021461030FEF74FFEF1695A
:102F600009F5EC5089B21830FEF76CFE2C6058E67B
:102F7000D8F830100122A2400A43C8F830204FF0A0
:102F800000621A60AFE5039A214666E7324833498A
:102F900030B400F58052324C324D206000238382E1
:102FA00000F5005CC382304C0383A2F81A3BA2F800
:102FB0001C3BA2F81E3BA2F8D03CA2F8D23CA2F8DF
:102FC000D43CA2F8983DA2F89A3DA2F89C3D01F5A8
:102FD0008052046001F50050244C8CF80037CCF886
:102FE0000C398CF80137CCF810398B828CF81439F5
:102FF000CB820C600B83A2F81A3BA2F81C3BA2F810
:103000001E3BA2F8D03CA2F8D23CA2F8D43CA2F8D5
:10301000983DA2F89A3DA2F89C3D154A80F80037E9
:1030200084B080F8013714680194019CC0F80C3911
:10303000C0F8103980F814391368029329600D4BD9
:1030400002991268039219600B48039A0B4B0460B3
:103050001A6004B030BC7047E80EFF1F0038FF1F35
:103060001861FF1F1C61FF1F18B600003CB600006E
:103070002C61FF1F2461FF1F2861FF1F2061FF1FBC
:1030800000B5036883B040F60D22ADF804205B68FC
:10309000022201A9984703B05DF804FB034B022804
:1030A00088BF034618461B685B6818475807FF1F10
:1030B0000EB400B582B003AA52F8041B019202F0CC
:1030C00017FB02B05DF804EB03B0704708B5FDF7DD
:1030D000E9FEFEF707FC01F073F9FAE701B441EAF3
:1030E000000313F003036FD1403A41D351F8043B7E
:1030F00040F8043B51F8043B40F8043B51F8043BD2
:1031000040F8043B51F8043B40F8043B51F8043BC1
:1031100040F8043B51F8043B40F8043B51F8043BB1
:1031200040F8043B51F8043B40F8043B51F8043BA1
:1031300040F8043B51F8043B40F8043B51F8043B91
:1031400040F8043B51F8043B40F8043B51F8043B81
:1031500040F8043B51F8043B40F8043B51F8043B71
:1031600040F8043B51F8043B40F8043B403ABDD2E0
:10317000303211D351F8043B40F8043B51F8043B82
:1031800040F8043B51F8043B40F8043B51F8043B41
:1031900040F8043B103AEDD20C3205D351F8043B11
:1031A00040F8043B043AF9D204320AD0D2071CBFDB
:1031B00011F8013B00F8013B03D30B7803704B7807
:1031C000437001BC704700BF0C2A4AD310F00303C0
:1031D00011D0C3F10403D21ADB071CBF11F8013B65
:1031E00000F8013B07D311F8013B00F8013B11F84F
:1031F000013B00F8013B11F003033FF475AF30B41D
:10320000043AC91AC3F1040C51F8044B022B19D02B
:10321000032B0BD0240A51F8043B1D0644EA050495
:1032200040F8044B1C46043AF4D216E0240E51F840
:10323000043B1D0244EA050440F8044B1C46043AD2
:10324000F4D20AE0240C51F8043B1D0444EA0504BE
:1032500040F8044B1C46043AF4D20432B1EB0C01A2
:1032600030BC043AA0D3013A11F8013B00F8013B0D
:10327000F9D20B7803704B7843708B78837001BC64
:10328000704700BF08B50F4C636B58030DD4636BD8
:1032900059050FD4636B1A0511D4636BDB04F3D5A6
:1032A00000F012F8636B5803F1D500F0A7FA636BD6
:1032B0005905EFD500F008F8636B1A05EDD500F05D
:1032C00003F8EAE70080044008B5FFF7DBFF00BF22
:1032D000014B10221A80704700200540704700BF44
:1032E0000B490A6848B108B5EC461318ACF5005014
:1032F000834204D20B60104608BD1046704702F0AE
:10330000A3FB0C234FF0FF320360104608BD00BF43
:103310005407FF1F002070474FF0FF30704700BF79
:103320004FF400534B600020704700BF01207047EE
:103330004FF0FF30704700BFFEE7FFFF074BDA7822
:10334000802A01D0002070470549064848640022C1
:103350005A70DA78802AFCD00120704700E00740DC
:103360000080044000002822074BDA78012A01D0AF
:103370000020704760225A70DA78802AFCD1034B13
:10338000034A5A640120704700E00740008004406F
:103390000000060201F1FF3C70B56546002401E023
:1033A00070460134B0FBF2FE02FB1E03092B03F151
:1033B00030068ABF3733F3B2DBB2904205F8013FE3
:1033C000EED2631C0022CA54C8187CB162461CF8B5
:1033D000015F10F801ED8CF800E0A1EB0C03023264
:1033E000013B521A23449A420570EFDB084670BD38
:1033F000034B002210215A615A60186059617047CE
:1034000000D00340704700BF4FF0E02C2DE9F041A1
:103410004FF00068CCF804814FF08058CCF804815C
:103420004FF00058CCF804812F4A3049304C314DD0
:10343000314E4FF08048CCF80481282300204EF60E
:10344000FF7E09274FF00048CCF804814860C1F89E
:1034500008E0CB604B61CB614B62CB624B63CB63CB
:103460004B64D3605361D3615362D3625363D363BC
:1034700053640F606860C5F808E0EB606B612F6013
:103480006060C4F808E0E360636127605060C2F8E0
:1034900008E0D36053611760F16A41F40071F16292
:1034A000716802F5803241F00071716047F6FF7477
:1034B0000821506082B09460D3605361116001F0C4
:1034C00023F8FFF79FFF0D4C23680093009B132BFD
:1034D000FAD900F04DFD23680193019BB3F5967F67
:1034E000F9D302B0BDE8F08100900B4000800340AA
:1034F00000800B4000900340008004402C61FF1FBF
:103500003F2818D810B4124B53F8302092F880425C
:1035100034B1012381B982F800315DF8044B704762
:1035200003EBC0035B681A6859B142F003025DF80F
:10353000044B1A607047704782F880305DF8044B86
:10354000704722F002025DF8044B1A60704700BF1A
:10355000B0B600003F2806D8044B53F8303093F83B
:103560000002C0B270470020704700BFB0B6000034
:103570003F2820D81B4A02EBC00301295B680FD00B
:1035800004291DD052F83000002280F8802299B121
:10359000022922D003290DD14FF481721A6070479D
:1035A00052F830004FF4A27280F880121A601A6844
:1035B00022F020021A6070474FF480721A60704740
:1035C00052F830104FF4A272012081F880021A6084
:1035D0001A6842F020021A60704740F203121A6023
:1035E000704700BFB0B600002DE9F843044672B63C
:1035F000214F4FF0E02293693D68D2F8042D62B666
:10360000520102D5322B88BF01350CB9BDE8F883D1
:10361000DFF86890DFF86880A9EB03039B08A8FB3C
:1036200003234FF47A7202FB05F505EB93054FF087
:10363000E02672B6B1693A68D6F804CD62B6A9EB55
:1036400001039B08A8FB03031CF0806FC5EB9303E9
:103650004FF47A7002D0322988BF013200FB023366
:10366000B3F57A7F04D3013CD0D005F57A75E0E755
:1036700000F0A6FEDDE700BF2C61FF1F1FBF0200A8
:10368000176CC116431E032B16D872B60B4951F89E
:10369000230078B130B40A4CB0F800C034F81320DD
:1036A000456841F82350A2EB0C0224F8132062B6BF
:1036B00030BC704762B6704700207047C061FF1F82
:1036C0001062FF1F013803280BD872B6074B53F85E
:1036D000203043B100205B680130002BFBD162B683
:1036E0007047002070471846F9E700BFE861FF1FE8
:1036F00010B472B61A4A1B4C042312F8011B0907B6
:1037000043F0010C05D554F8331069B154F83C105E
:10371000C9B10433142BF0D162B6134B00221A70D6
:103720005DF8044B00F0AEBC0F4904EBC302083057
:1037300050600A780D4844F83300013A0A7062B6C6
:103740005DF8044B7047084A094904EBCC03083084
:103750005860137844F83C10013B137062B6EFE7F1
:1037600030B900000000FF1F1862FF1F88004000F2
:10377000C8004000421E032A0ED81C4B400140F0F6
:10378000100010B4034472B6194CA05C03281DD875
:10379000DFE800F01416031970470520A05413F059
:1037A000080F088814BFC8228822083142EA004264
:1037B00059601A6062B65DF8044B70470320EDE76C
:1037C00008330220EAE708330420E7E7094B53F8FF
:1037D000220038B1084B53F82200416043F8221010
:1037E00062B6E8E743F82210034BF7E70000FF1F3B
:1037F0000862FF1FE861FF1FF861FF1F2DE9F04F0E
:10380000DFF80CA3DFF80CB385B03DE0B04D9E08A7
:1038100005EBC607013A796813F00803D4B2A1F1A9
:10382000080040F0B88055F836204FEA124C120CD0
:1038300021F808CC00F0A78021F8063C41F8043CB0
:10384000A44B53F82420002A00F00182A24B53F825
:103850002420506043F82400A04B33F814209444F3
:1038600023F814C000F0EEFB002800F0E98117F007
:10387000080F9B4B00F1080018BF5B46786045F8C5
:10388000363008238AF880309AF880305907DCB245
:103890001BD5944B1B78ABB193490A7802F0FF0318
:1038A0002AB1013BDBB20B70002B00F046838F493D
:1038B0000A7802F0FF032AB1013BDBB20B70002B48
:1038C00000F0EB8104238AF8803014F0080200F045
:1038D000CC819AF89020D3B2120997D1DFF8F091F9
:1038E0009B0809EBC30459F833006468C0F38300F4
:1038F00009287CD00FD80138012808D87C4A1588BF
:1039000042F22100854200F0FB8149F833B00123E7
:103910008AF89430B5E70D28F9D1D4E90007754D40
:1039200049F833B0724E744CC9F8102083B240F29B
:10393000816CC9F818202A6063454FF00102C6E97E
:103940000007227000F2FF80B3F5D06F80F0CB82C9
:10395000B3F5817F00F0268240F2DE8040F2023231
:1039600093427BD107F07F07042F00F20881020CFD
:1039700040F00581614911F8273043F0020301F856
:103980002730134670E017F0080F554B18BF5B4601
:1039900045F8363075E700F075FB5949594A51F83A
:1039A0002430002B00F05781586841F82400115D45
:1039B00003F108007860032905D8DFE801F0120F51
:1039C0001502042111551A8817F0080F14BFC823D7
:1039D000882343EA024345F8363052E70221115565
:1039E000F1E703211155EEE705211155EBE7414DB4
:1039F0002A683AB34449404C0F88444894F800E0A0
:103A00000678402F3B4628BF4023BEF1000F8EF0C2
:103A1000010E84F800E046F0020486F0010606700C
:103A200009EBC400426014BFC820882040EA03406C
:103A30001A44FB1A9BB249F834000B80002B00F0AB
:103A400036812A602A4B1A88B2F5A06F7FF45FAFE7
:103A50009A788AF8982000225A7058E7B3F5A06F38
:103A600040F08D8000221346B6F806C027489445E2
:103A700028BF944667460278402F28BF402742F06F
:103A8000020E3E0409EBCE0846F0C806C8F8043022
:103A900049F83E6000263B442670BCEB070782F0E5
:103AA0000106067040F01181BCF13F0F4FF0010597
:103AB00009D946F00206027009EBC6022570536070
:103AC000882349F8363001238AF894301FE700BF75
:103AD0000000FF1FC061FF1FD061FF1F1062FF1FAA
:103AE000880040000C62FF1F0D62FF1F3862FF1F3D
:103AF000E061FF1FB461FF1FB161FF1FC0200740DD
:103B0000E861FF1F0862FF1FB261FF1FB061FF1F66
:103B100000200740C8004000802B00F08B81822BE2
:103B20002DD107F07F07042F29D8A74A002313803F
:103B3000A64B13F827309F0740F1FC810123137037
:103B4000A14B022290E742F2210C6345BBD01DD964
:103B500042F2212293420DD1BFB2002F82D19C4B61
:103B60001A689C4B1A609C4BC0F3074000221870E7
:103B7000134679E742F2213293423FF473AF0F23A9
:103B80008AF8C03001238AF89430C0E6B3F5086F94
:103B900000F04A81B3F5106FF1D1904BC0F30740AC
:103BA0000425187059F835301A0606D40135142D3D
:103BB0000CD059F835301A06F8D509EBC503013594
:103BC0005868083800F05EFA142DF2D1844A854B0B
:103BD0000292854A0192854E854ADFF84882039415
:103BE000009200251C4656F8047B2FB138467F68AA
:103BF00000F048FA002FF9D1009BD8F8007043F884
:103C0000045B46F8045C00932FB138467F6800F0EF
:103C100039FA002FF9D1029B48F8045B43F8045BA2
:103C20000293019B23F8025B01932378023B032B51
:103C300000F20981DFE813F03F0104013F010401B4
:103C40006C4A45F8360013780133137019E643F8CF
:103C50002400674BFEE5115D022926D07FF611AEE8
:103C600003291DD1012313550BE6E0076ED421066D
:103C700021D4A20708D5604B93F888200221D2B244
:103C800083F8882083F88010E30603D55A4B10226E
:103C900083F8802005B0BDE8F08F00F06DFB11E6E1
:103CA00017F0080F14BF032302231355E9E53F2F34
:103CB00098BF0022C5E6504B80220D2183F8C0102A
:103CC00083F88020A207DFD5D5E746F00206027010
:103CD000402F09EBC6003A4628BF4022436010043B
:103CE000134440F088000121BA1A49F836002170C7
:103CF00055D02B60414B1A8001238AF8943006E698
:103D000092885AB93E4AE51D14F8011B02F8011FBA
:103D1000AC42F9D13B4A1268862A3CD03A4C3B4827
:103D200025780278002D85F00105257042F0020407
:103D300082F00102027009EBC4024FF000005060F3
:103D400014BFC822882249F83420DEE52A4B2F48C8
:103D50002F49304C022583F8945002702E480C6095
:103D60002E4D48608C600D24CD60FF200A618A6171
:103D700083F8C04001219F2483F8880083F88000E5
:103D800083F8982083F88C0083F8844083F894109B
:103D900005B0BDE8F08F224A0F201070BEE73F2F1C
:103DA000A7D890E607F07F07042F3FF6E8AE000C97
:103DB0007FF4E5AE054A12F8273023F0020302F83B
:103DC0002730002213464FE6B861FF1FC02007408E
:103DD0002C61FF1F3462FF1F3062FF1F0C62FF1F48
:103DE000F861FF1F0862FF1F1062FF1FC061FF1F05
:103DF000D061FF1F1862FF1F00200740B261FF1F44
:103E00002762FF1F2862FF1FB161FF1FB061FF1F04
:103E10000000FF1F880040003061FF1F7061FF1F1E
:103E20000D62FF1FE861FF1F484B49491B780B706B
:103E30000B4619E6464A00231380454B022213E63F
:103E40004FF001032370434BB34204F101047FF4AC
:103E5000CAAE414E039CDFF81481404F00233370FB
:103E6000042518F8013B3E4AAB541B0725D445F006
:103E7000020145F0030204350023142D49F83130C6
:103E800049F83230EDD1374F25783A7842F00200C8
:103E900009EBC00C85F00106CCF80430002D4DD1A3
:103EA000882382F0010226703A7049F830300123ED
:103EB0008AF894302BE52570C5E700F0C3F8002898
:103EC00032D009EBC5030830586049F8357000F06E
:103ED000B9F808B345F0010309EBC302083050609C
:103EE00049F833B0C3E7204A5368002B3FF447AE8C
:103EF000000CBFB204E013690C32002B3FF43FAE5C
:103F000011888142F7D15188B942F4D1000A0328BF
:103F10000CBF1A781289A7E533780133337045F066
:103F2000010349F83300A2E7337849F8350001333B
:103F30003370CCE7064B022296E500BE2670C823FC
:103F400082F001063E7049F83030BCE50C62FF1F7C
:103F5000B861FF1FD061FF1F1862FF1F880040007B
:103F6000C0200740B061FF1FDCB8000030B900007E
:103F700010B500F02FFB0023234A194642F83310F6
:103F800002EBC3000133142B4160F7D11F48204CD2
:103F9000436B43F480234363D4F8003800F52830A2
:103FA00000F5807043F04073C4F80038032480F8B3
:103FB0004440184BA02480F84040C2F3072483F803
:103FC0009C40C2F30744120E83F8B0404FF0FF0C40
:103FD00083F8B420012283F880C00F4C83F888C096
:103FE00083F810C083F8942001704FF0E02183F82B
:103FF00084204FF0700C4FF40012102384F835C069
:10400000C1F80421037210BD0000FF1F00800440AE
:1040100000D000400020074000E400E000F0ACB811
:1040200000F07CB800F056B800F090B800F078B915
:1040300000F052B90846114600F0BAB8084600F040
:104040003DB900BF72B60D490B68B3FA83F00B2877
:1040500010DC4FF00042C24023EA02030B6062B65C
:10406000074A00EBC000C10002EBC0000023535020
:104070004360704762B60020704700BF6807FF1FAB
:10408000D003FF1F0E4BC31AB3F5587F10D20D4A51
:10409000127872B972B60C4A0C49A2FB0323086865
:1040A0004FF000421B0922FA03F303430B6062B690
:1040B0007047074A1278002AECD0FFF719BB00BFFF
:1040C000D003FF1F1862FF1F398EE3386807FF1FF8
:1040D0000C62FF1F38B50F4C206878B14388028806
:1040E000C11801339A420D7A02D94380284638BD5F
:1040F000FFF7C8FF00232360284638BD064B1B7816
:104100002BB10320FFF7BEFA20600028E6D14FF064
:10411000FF35EBE71C62FF1F0C62FF1F10B5094C57
:10412000206818B143881844007A10BD064B1B78EC
:104130002BB10320FFF7A6FA20600028F2D14FF040
:10414000FF3010BD1C62FF1F0C62FF1F084B094AA5
:104150001B6810B594881BB11A885B88D31A1C445D
:104160000CB1204610BD00F02BF9204610BD00BF59
:104170001C62FF1F1062FF1F0B4B1B789BB110B519
:104180000A4C206848B1FFF77DFF0023032023601D
:10419000FFF778FA30B1FFF775FF0320FFF772FAE7
:1041A0000028F8D110BD70470C62FF1F1C62FF1F72
:1041B0002DE9F04FDFF8F89083B0012289F8002054
:1041C000019179B3374FDFF8EC80019D364EDFF86F
:1041D000E8A083463868A8B3B0F802E0CEF1400CFE
:1041E000AC4528BFAC460EEB0C040022A4B23270E2
:1041F000A5EB0C05448000F10802BCF1000F0AD0C9
:104200000EF1FF3E7244DC441BF8014B02F8014FF3
:10421000DC45F9D144883F2C0BD805228AF80020D0
:10422000002DD7D10198002389F8003003B0BDE8F4
:10423000F08F4022028001460420FFF79BFA002203
:104240003A60EAE798F800201AB3184C08E0013CFD
:1042500018D03278B2B900F0B3F898F80020C2B1A3
:104260000420FFF72FFA0728F1D84FF0010389F84F
:104270000030FFF7E7FE38600028ADD1013C89F837
:104280000000E6D101234FF0FF30337003B0BDE8EA
:10429000F08F00234FF0FF3089F8003003B0BDE805
:1042A000F08F00BF2462FF1F2062FF1F2148010022
:1042B0002162FF1F0C62FF1F3862FF1F00B583B031
:1042C000034601210DF107008DF80730FFF770FF5D
:1042D00003B05DF804FB00BF38B50E4D0E4C2868E6
:1042E0000123237028B140880023C0F140002370CF
:1042F00038BD0A4B1B7813B90020207038BD04204C
:10430000FFF7E0F90728F7D8FFF79CFE28600028A0
:10431000E9D1F1E72462FF1F2162FF1F0C62FF1F3A
:10432000F8B5114B1B788BB1104E114D3468012735
:104330002F7064B10F4B00271F70638823802146C4
:104340000420FFF717FA376000232B70F8BDFFF742
:1043500079FE084B014620B104201C70FFF70AFAD1
:10436000F2E71F70F0E700BF0C62FF1F2462FF1F1F
:104370002162FF1F3862FF1F38B50E4B1B7853B9FF
:104380000D4C216841B103F0FF054B880B800420E0
:10439000FFF7F0F9256038BDFFF754FE014620B164
:1043A000BDE838400420FFF7E5B9044B01221A703C
:1043B00038BD00BF2162FF1F2462FF1F3862FF1F4C
:1043C0002DE9F843324E337863B1324F3A784AB927
:1043D0000122D9073A7043D49A0726D400225B07FA
:1043E0003A7001D4BDE8F8832B4B1A68002AF9D043
:1043F000EFF30582002AF5D1EFF3108572B6186845
:1044000000283AD0254C2178002936D142691A601B
:1044100001232370002A37D0916105B962B60025C7
:104420008368457798472570DCE7DFF87C8098F84B
:104430000020002AD2D00025DFF870902B4659F8D2
:104440002340236820461B690135984708B123693A
:10445000984798F80020EBB29A42F0D83378BDE73D
:10446000FFF774FE68B90E4B1B780BB93378B3E7CE
:10447000337803F0FE033370AEE7002DB2D162B69D
:10448000B0E700F0A5F8EEE7064B1A60C5E700BFFD
:104490006C07FF1F3962FF1F3C62FF1F4862FF1F4E
:1044A000D8B800004C62FF1F6862FF1F5062FF1FF8
:1044B00070B5EFF3108272B60C4C206880B10C4ED0
:1044C00000254369236073B19D6102B962B68368B8
:1044D00045779847EFF3108272B620680028F0D134
:1044E00002B962B670BD3360EFE700BF4462FF1FE0
:1044F0004062FF1FFFF7DCBF024A136801331360FD
:10450000704700BF2C61FF1F2A4B2B4A6020E1211E
:104510001870597013782948082B34D00A2B20D0F2
:104520000C2B274B0CBF35215D2112228160C2600C
:104530009960DA60234B21491B78214ACBB10123D2
:104540000B621362204B1D491B781D4A012B13D9A6
:10455000042B1BD884234B6253621C4B01221A701C
:104560007047174B392113228160C2609960DA606D
:10457000E0E70B621362E5E780234B625362134B63
:1045800001221A7070470E4B2121ECE7082B06D848
:1045900085234B6253620D4B01221A707047102B1A
:1045A00094BF862387234B625362084B01221A7003
:1045B000704700BF004007406D07FF1F00B0034079
:1045C00000B00B406962FF1F6E07FF1F6A62FF1F8A
:1045D000704700BF10B584B072B6FEF7AFFE174A41
:1045E00017495160702080231070137013781B06D8
:1045F000FCD5D468FEF7B8FE62B6124B9C423CBFB5
:1046000004EB8404640020460F4C01A90A22FEF743
:10461000C1FE01A92046002311F8012B01333AB154
:104620000A2B20F8022FF7D11623237004B010BDF7
:104630005B00DBB2237004B010BD00BF000002407D
:104640000000074180969800FC07FF1F81F00041A1
:1046500002E000BF83F0004330B54FEA41044FEA67
:10466000430594EA050F08BF90EA020F1FBF54EA02
:10467000000C55EA020C7FEA645C7FEA655C00F09E
:10468000E2804FEA5454D4EB5555B8BF6D420CDD6F
:104690002C4480EA020281EA030382EA000083EAF2
:1046A000010180EA020281EA0303362D88BF30BD92
:1046B00011F0004F4FEA01314FF4801C4CEA1131E8
:1046C00002D0404261EB410113F0004F4FEA033347
:1046D0004CEA133302D0524263EB430394EA050FD2
:1046E00000F0A780A4F10104D5F1200E0DDB02FA41
:1046F0000EFC22FA05F2801841F1000103FA0EF2D5
:10470000801843FA05F359410EE0A5F120050EF19A
:10471000200E012A03FA0EFC28BF4CF0020C43FACB
:1047200005F3C01851EBE37101F0004507D54FF0D8
:10473000000EDCF1000C7EEB00006EEB0101B1F528
:10474000801F1BD3B1F5001F0CD349085FEA30006E
:104750004FEA3C0C04F101044FEA445212F5800F79
:1047600080F09A80BCF1004F08BF5FEA500C50F116
:10477000000041EB045141EA050130BD5FEA4C0CF9
:10478000404141EB0101013C28BFB1F5801FE9D256
:1047900091F0000F04BF01460020B1FA81F308BF79
:1047A0002033A3F10B03B3F120020CDA0C3208DD45
:1047B00002F1140CC2F10C0201FA0CF021FA02F120
:1047C0000CE002F11402D8BFC2F1200C01FA02F190
:1047D00020FA0CFCDCBF41EA0C019040E41AA2BFB5
:1047E00001EB0451294330BD6FEA04041F3C1CDA7D
:1047F0000C340EDC04F11404C4F1200220FA04F09D
:1048000001FA02F340EA030021FA04F345EA030146
:1048100030BDC4F10C04C4F1200220FA02F001FA08
:1048200004F340EA0300294630BD21FA04F029468A
:1048300030BD94F0000F83F4801306BF81F4801123
:104840000134013D4EE77FEA645C18BF7FEA655C96
:1048500029D094EA050F08BF90EA020F05D054EA68
:10486000000C04BF1946104630BD91EA030F1EBF6D
:104870000021002030BD5FEA545C05D14000494171
:1048800028BF41F0004130BD14F580043CBF01F564
:10489000801130BD01F0004545F0FE4141F470014A
:1048A0004FF0000030BD7FEA645C1ABF1946104625
:1048B0007FEA655C1CBF0B46024650EA013406BF26
:1048C00052EA033591EA030F41F4002130BD00BFE5
:1048D00090F0000F04BF0021704730B54FF48064A2
:1048E00004F132044FF000054FF0000150E700BF23
:1048F00090F0000F04BF0021704730B54FF4806482
:1049000004F1320410F0004548BF40424FF000016E
:104910003EE700BF42004FEAE2014FEA31014FEAB1
:1049200002701FBF12F07F4393F07F4F81F0605100
:10493000704732F07F4208BF704793F07F4F04BF4B
:1049400041F40021704730B54FF4607401F0004528
:1049500021F000411CE700BF50EA010208BF704788
:1049600030B54FF000050AE050EA010208BF704779
:1049700030B511F0004502D5404261EB41014FF4E2
:10498000806404F132045FEA915C3FF4D8AE4FF0EA
:1049900003025FEADC0C18BF03325FEADC0C18BFCD
:1049A000033202EBDC02C2F1200300FA03FC20FA1E
:1049B00002F001FA03FE40EA0E0021FA02F114446B
:1049C000BDE600BF4FF0FF3C06E000BF4FF0010C1A
:1049D00002E000BF4FF0010C4DF804CD4FEA410C4E
:1049E0007FEA6C5C4FEA430C18BF7FEA6C5C1BD01B
:1049F00001B050EA410C0CBF52EA430C91EA030F9C
:104A000002BF90EA020F0020704710F1000F91EAF8
:104A1000030F58BF994208BF90422CBFD8176FEAC6
:104A2000E37040F0010070474FEA410C7FEA6C5C94
:104A300002D150EA013C07D14FEA430C7FEA6C5C9B
:104A4000D6D152EA033CD3D05DF8040B704700BFC7
:104A50008446104662468C461946634600E000BF15
:104A600001B5FFF7B7FF002848BF10F1000F01BDE7
:104A70004DF808EDFFF7F4FF0CBF012000205DF8B2
:104A800008FB00BF4DF808EDFFF7EAFF34BF012037
:104A900000205DF808FB00BF4DF808EDFFF7E0FFD0
:104AA00094BF012000205DF808FB00BF4DF808ED21
:104AB000FFF7CEFF94BF012000205DF808FB00BF88
:104AC0004DF808EDFFF7C4FF34BF012000205DF86A
:104AD00008FB00BF4FEA410C7FEA6C5C02D150EA50
:104AE000013C0AD14FEA430C7FEA6C5C02D152EAE6
:104AF000033C02D14FF0000070474FF001007047B7
:104B00002DE9F04F01F10B06162E83B0044624D890
:104B1000102900F2BA8000F0A3FA10261822022011
:104B2000B54F3A44A2F1080153688B4200F0BA80B5
:104B30005A68D96822F003021A449D68E9608D60C2
:104B4000516841F001012046516003F1080500F071
:104B50008DFA284603B0BDE8F08F36F0070600F165
:104B60009480B14200F2918000F07AFAB6F5FC7FB1
:104B7000C0F09A81730A00F08F80042B00F26F81DD
:104B8000B30903F1390003F1380CC3009A4F3B44D9
:104B9000A3F108055B689D4206D10CE0002980F274
:104BA0002781DB689D4206D05A6822F00302911BE0
:104BB0000F29F3DD60463D69DFF850C265457CD0C2
:104BC0006A6822F00302931B0F2B00F37B81002BFA
:104BD000C7E904CC80F26C81B2F5007F80F01A81C5
:104BE000D308796801334FEA521E012202FA0EF20D
:104BF0000A4357F833E0C5F808E007EBC30108396A
:104C0000E9607A6047F83350CEF80C5083100121E8
:104C10009940914257D8114206D120F00300490033
:104C2000114200F10400FAD007EBC0094D46864658
:104C3000D5F80C80454508D11DE1002B80F2248178
:104C4000D8F80C80454500F01681D8F8042022F0F1
:104C50000302931B0F2BF0DD2046D8E9025408EB2A
:104C6000060146F00106C8F80460EC60A56043F058
:104C70000104C7E90411C1E902CC4C6048F80230D4
:104C800000F0F4F908F1080502E00C232360002588
:104C9000284603B0BDE8F08F4FF4007340204FF07A
:104CA0003F0C73E7D3689A4208BF02307FF440AFED
:104CB0003D69DFF858C1654582D17A6883100121CA
:104CC00099409142A7D9BD686B6823F003094E450E
:104CD00003D8A9EB06030F2B7ADCDFF834B1474B7E
:104CE000DBF800201B680132334405EB090A00F0B1
:104CF000338103F580530F3323F47F6828F00F08C6
:104D00004146204600F078FE411C024600F0F38048
:104D1000824500F2EE803A4B19684144196008461A
:104D200000F04E81DBF80010019301311BBFA2EBB4
:104D30000A010918CBF80020196012F0070B00F0E7
:104D40001781CBF108010A44CBF58051904408311A
:104D5000A1EB0801C1F30B0A51462046009200F076
:104D60004BFE421CDDE9002300F04F81801A00EB6E
:104D70000A081968BA6048F001005144BD42506009
:104D8000196000F02981B9F10F0F40F2278168689E
:104D9000A9F10C0C2CF0070C00F0010040EA0C000B
:104DA00068604FF0050E05EB0C00BCF10F0FC0E979
:104DB00001EE00F2328150681546124B1A688A42A1
:104DC00038BF1960104B1A688A4238BF196094E0E6
:104DD000AA1943F0010346F001066E602046BA604E
:104DE000536000F043F90835284603B0BDE8F08F62
:104DF000D9681A44A1E600BF1408FF1F9C62FF1F78
:104E00006C62FF1F9462FF1F9862FF1F1C08FF1F48
:104E10001C0CFF1FB2F5206F4FEA522363D3142BF3
:104E200000F2B78003F15C01C9005B3307EB010EB0
:104E30007958AEF1080E8E4500F091804B6823F052
:104E40000303934202D989688E45F7D1D1F80CE06B
:104E50007A68C5E9021ECEF80850CD60D6E6142B5C
:104E600059D9542B00F29D80330B03F16F0003F1ED
:104E70006E0CC3008AE60EF1010E1EF0030F05F161
:104E800008057FF4D5AE51E0424445465368D8F852
:104E90000C1043F00103536055F8083F2046D960D9
:104EA0008B6000F0E3F8F3E6F00806F1080237E65D
:104EB0002A442046536843F001035360083500F04C
:104EC000D5F8E5E6A919204646F0010643F00104AD
:104ED0006E60C7E90411C1E902CC4C60AB5000F030
:104EE000C5F80835D4E6930903F13901C900383310
:104EF0009CE7BD425FD0BD68686820F00308464566
:104F0000A8EB060302D80F2B3FF762AF204600F054
:104F1000ADF80025BCE603F15C0003F15B0CC300B7
:104F200034E659F808394B4540F0968010F0030FED
:104F300000F1FF30F5D17B6823EA01037B60490073
:104F400099423FF6C0AE19B9BDE649000EF1040E14
:104F50001942FAD0704667E603F11008D0E69A10BD
:104F60004FF001087B6808FA02F21A437A6070E792
:104F700002EB08014942C1F30B0A51462046009258
:104F800000F03AFD431CDDE900237FF4EFAEDA4682
:104F9000EFE6542B25D8130B03F16F01C9006E33D4
:104FA00044E7B3F5AA7F25D8F30B03F1780003F1AA
:104FB000770CC300EAE5294B186840441860B1E655
:104FC000CAF30B0CBCF1000F7FF4ACAEBD68C84453
:104FD00048F001006860F0E61546EEE601235360F4
:104FE00094E7B3F5AA7F23D8D30B03F17801C90066
:104FF00077331BE740F25452934223D8B30C03F1AA
:105000007D0003F17C0CC300C0E5ABF1080BD84474
:10501000A8EB02084FF0000AABE605F108012046B4
:10502000009300F01BFEBD68009B68681968C4E629
:1050300040F254518B420BD8930C03F17D01C9000F
:105040007C33F3E64FF47E737F204FF07E0C9DE5BA
:105050004FF47E717E23E9E67B6870E76C62FF1F88
:10506000014800F01FBD00BFE463FF1F014800F0CE
:105070001BBD00BFE463FF1F2DE9F84F1746002951
:1050800000F098800C4607F10B058046FFF7E8FF1B
:10509000162D54F8041C5BD810252A46AF425CD864
:1050A00021F003069642A4F1080962DABC4BD3F85A
:1050B00008C009EB0600844500F09780D0F804C0D2
:1050C0002CF0010303445B68DB0768D42CF0030C6D
:1050D00006EB0C03934247DACB0710D454F8083C94
:1050E000A9EB030ADAF8043023F003018C44B4443A
:1050F000944580F211817318934280F2E88039461A
:105100004046FFF7FDFC0746E0B154F8043C23F0AD
:1051100001034B44A0F10802934200F0D280321FF9
:10512000242A00F2F580132A00F2AC8003462246BE
:10513000116819605168596092689A60214640462A
:1051400000F08CFD4046FFF791FF3846BDE8F88F30
:1051500025F00705002D2A46A0DA0C23C8F80030F8
:1051600000273846BDE8F88F1E46D0E90223D360F9
:105170009A60731B0F2B22D8D9F8043003F0010377
:1051800033434E44C9F80430736843F0010373603D
:1051900040462746FFF76AFF3846BDE8F88FC90743
:1051A000ADD454F8083CA9EB030ADAF8041021F056
:1051B0000301A0E7BDE8F84F1146FFF7A1BCD9F8FD
:1051C000042009EB050102F001024E4443F0010303
:1051D0002A43C9F804204B60736843F00103083187
:1051E0007360404600F03AFDD2E7DCF8040020F09E
:1051F000030B06EB0B0C05F1100084454DDAC907D3
:105200003FF57DAF54F8081CA9EB010ADAF8041049
:1052100021F003018B44B34458453FF76CAF574628
:10522000DAF80C1057F8080F321F242AC160886082
:1052300000F2DB80132A40F2D6802168CAF80810F9
:105240006168CAF80C101B2A00F2DF8008340AF1EA
:1052500010022168116061685160A16891600AEBD9
:105260000501ABEB050242F0010299604A60DAF8F1
:10527000043003F001032B434046CAF80430FFF723
:10528000F5FE6EE723680360636843601B2A68D8F5
:1052900004F1080200F108034AE709EB05029A60ED
:1052A000ACEB050343F00103536054F8043C03F0F6
:1052B00001032B43404644F8043CFFF7D7FE274642
:1052C0004FE750F8043C23F003031E4451E75746D0
:1052D000DAF80C1057F8080F321F242AC1608860D2
:1052E0004CD8132A48D92168CAF808106168CAF84E
:1052F0000C101B2A56D808340AF110021E462368E7
:10530000136063685360A3689360D1463C4630E7FE
:10531000214600F02DFA11E7D0E902135746CB6081
:10532000996057F8081FDAF80C30CB60321F242A36
:1053300099602DD8132A29D92368CAF808306368E0
:10534000CAF80C301B2A42D808340AF1100322682C
:105350001A6062685A60A2689A606646D1463C4606
:1053600007E7A3688360E368C360242A26D004F1BA
:10537000100200F11003DBE63A46BFE7214638464B
:105380001E46D14600F0F4F93C46F2E63B46DEE725
:10539000214638466646D14600F0EAF93C46E8E642
:1053A0001408FF1FA168CAF81010E168CAF81410A9
:1053B000242A20D010340AF118029FE723690361E0
:1053C0006169416104F1180200F11803B0E6A368B5
:1053D000CAF81030E368CAF81430242A21D01034F7
:1053E0000AF11803B3E73A4633E72146384600F09E
:1053F000BFF9164B33E72269CAF818206269CAF868
:105400001C2018340AF1200278E7A168CAF81010AD
:10541000E168CAF81410242A0DD010340AF11802D9
:1054200017E72369CAF818306369CAF81C301834C2
:105430000AF120038BE72269CAF818206269CAF8CA
:105440001C2018340AF1200203E700BF1408FF1FD4
:10545000024A0349034800F0BBB800BF240CFF1FF9
:1054600009820000A00DFF1F0C4B4168994210B546
:10547000044601D002F0C8FEA168094B994202D04F
:10548000204602F0C1FEE168064B994204D0204656
:10549000BDE8104002F0B8BE10BD00BFA062FF1F03
:1054A0000863FF1F7063FF1F2DE9F8432A4C2B4B45
:1054B0002B48DFF8C090DFF8C0802A4F1860002525
:1054C00004230822294604F15C00274E6566C4E9DE
:1054D0000253C4E90055C4E90455A56100F0C4F9BC
:1054E000224B63670822294604F1C400C4E9074936
:1054F000C4E90987C4E91A55C4E91E55C4F8CC505B
:105500002567C4F88050E66200F0AEF9184BC4F885
:10551000DC30294604F16803082204F59670C4F8CB
:105520008430C4E92298C4E92476C4E93455C4E936
:105530003855C4F83451C4F8D850C4F8E85000F0D5
:1055400093F904F1D003C4E93C98C4E93E76C4F869
:10555000EC30BDE8F88300BFA062FF1FD863FF1FD7
:10556000515400007D5600009D56000009000100C6
:1055700012000200195600003D56000010B5044606
:105580000A4800F08FFA636B23B9094B094A1B687C
:10559000626323B1BDE81040044800F085BAFFF70C
:1055A00083FFBDE81040014800F07EBAE863FF1FAA
:1055B000D863FF1F69540000014800F073BA00BFB0
:1055C000E863FF1F014800F06FBA00BFE863FF1FE8
:1055D0002DE9F84380460F4616464FF00009D6E9FC
:1055E0000154013D11D4A389012B05F1FF3508D9E0
:1055F000B4F90E300133214603D04046B84749EA9A
:1056000000096B1C04F16804EDD13668002EE6D168
:105610004846BDE8F88300BF10B50C46B1F90E103E
:1056200000F0D4F9002803DB236D0344236510BD8B
:10563000A38923F48053A38110BD00BF2DE9F0415D
:105640000C46B1F90C101F46CB05054616460BD487
:1056500021F48051A1813B46B4F90E103246284610
:10566000BDE8F04100F0DAB9B4F90E1002230022CF
:1056700000F096F9B4F90C10EAE700BF10B50C463B
:10568000B1F90E1000F08CF9A389421C0EBF23F46F
:10569000805343F480532065A38110BDB1F90E10EF
:1056A00000F06CB9F0B5ADF5057D04AF009313467D
:1056B0004FF400720E460392394603AA054600F0E5
:1056C00025F888B104460246039B3146284600F07F
:1056D000A5F9BC42039004D02846214600F0BEFA4A
:1056E00003980DF5057DF0BD4FF0FF30F9E700BFE1
:1056F00010B4054C8446134620685DF8044B0A46F6
:105700006146FFF7CFBF00BFC00EFF1F30B5146862
:1057100015469BB01A4609B1002C19D100214FF44F
:105720002273ADF80C30009104914FF6FF73029193
:105730000591ADF80E3069461E9B00F075FF0028FC
:1057400013DB009B286000221A7004981BB030BD48
:105750004FF4C16300910491ADF80C302146E4DAB6
:105760008B23036000201BB030BD0020EEE700BF9C
:1057700088420DD98B1883420AD900EB020CBAB1CA
:10578000624613F801CD02F801CD9942F9D1704774
:105790000F2A0ED8034602F1FF3C4AB10CF1010C6E
:1057A000013B8C4411F8012B03F8012F6145F9D11D
:1057B000704740EA01039B0750D1A2F1100370B576
:1057C00001F1200C23F00F0501F1100E00F110047F
:1057D000AC441B095EF8105C44F8105C5EF80C5C8D
:1057E00044F80C5C5EF8085C44F8085C5EF8045C05
:1057F00044F8045C0EF1100EE64504F11004E9D102
:10580000013312F00C0F01EB031102F00F0400EB57
:10581000031327D0043C24F003064FEA940C1E44E3
:105820001C1F8E465EF8045B44F8045FB442F9D155
:105830000CF1010402F0030203EB840301EB840189
:1058400002F1FF3C4AB10CF1010C013B8C4411F810
:10585000012B03F8012F6145F9D170BD02F1FF3C26
:1058600003469BE72246EBE7830730B548D0541E3A
:10587000002A3FD0CAB2034601E0013C3AD303F804
:10588000012B9D07F9D1032C2DD9CDB245EA052571
:105890000F2C45EA054536D9A4F1100222F00F0C71
:1058A00003F1200EE6444FEA121C03F1100242E914
:1058B000045542E9025510327245F8D10CF101024B
:1058C00014F00C0F03EB021204F00F0C13D0ACF128
:1058D000040323F003030433134442F8045B9342AC
:1058E000FBD10CF003042CB1C9B21C4403F8011B1A
:1058F0009C42FBD130BD64461346002CF4D1F9E73D
:1059000003461446BFE71A46A446E0E740EA01030F
:105910009B0730B501D1032A0FD8844601F1FF3E21
:1059200007E01EF8011F03F8011B541EC1B19C467D
:1059300022466346002AF4D130BD0B468446194600
:1059400053F8045BA5F1013424EA050414F0803F08
:10595000E4D1043A032A4CF8045B1946EFD8DDE79A
:105960009444002CE8D003F8011B6345FBD130BD03
:10597000014B93F828017047300CFF1F38B5074DD5
:105980000022044608462A60FDF7C6FC431C00D0EE
:1059900038BD2B68002BFBD0236038BDDC63FF1FB4
:1059A00038B50C46084D8446114620461A46002359
:1059B0002B606446FDF7BCFC431C00D038BD2B684F
:1059C000002BFBD0236038BDDC63FF1F38B50C46CD
:1059D000084D8446114620461A4600232B60644633
:1059E000FDF798FC431C00D038BD2B68002BFBD082
:1059F000236038BDDC63FF1F38B5074D0022044625
:105A000008462A60FDF76CFC431C00D038BD2B68AB
:105A1000002BFBD0236038BDDC63FF1F38B50C467C
:105A2000084D8446114620461A4600232B606446E2
:105A3000FDF734FB431C00D038BD2B68002BFBD096
:105A4000236038BDDC63FF1F014B1868704700BF3F
:105A5000C00EFF1F70B50D4E0D4D761BB61006D053
:105A6000002455F8043B01349847A642F9D1094E69
:105A7000094D761B06F052F9B61006D0002455F8F1
:105A8000043B01349847A642F9D170BD28BD0000FF
:105A900028BD000034BD000028BD0000704700BFD5
:105AA000704700BF704700BF704700BFFFFFFFFF98
:105AB000FFFFFFFFFFFFFFFFFFFFFFFFFFFFFFFFF6
:105AC00090F800F06DE9024520F007016FF0000C3E
:105AD00010F0070491F820F040F049804FF00004E6
